{
  "contractName": "ERC20",
  "abi": [
    {
      "inputs": [
        {
          "internalType": "string",
          "name": "_name",
          "type": "string"
        },
        {
          "internalType": "address",
          "name": "_miner",
          "type": "address"
        }
      ],
      "stateMutability": "nonpayable",
      "type": "constructor"
    },
    {
      "anonymous": false,
      "inputs": [
        {
          "indexed": true,
          "internalType": "address",
          "name": "_owner",
          "type": "address"
        },
        {
          "indexed": true,
          "internalType": "address",
          "name": "_spender",
          "type": "address"
        },
        {
          "indexed": false,
          "internalType": "uint256",
          "name": "_value",
          "type": "uint256"
        }
      ],
      "name": "Approval",
      "type": "event"
    },
    {
      "anonymous": false,
      "inputs": [
        {
          "indexed": true,
          "internalType": "address",
          "name": "_from",
          "type": "address"
        },
        {
          "indexed": true,
          "internalType": "address",
          "name": "_to",
          "type": "address"
        },
        {
          "indexed": false,
          "internalType": "uint256",
          "name": "_value",
          "type": "uint256"
        }
      ],
      "name": "Transfer",
      "type": "event"
    },
    {
      "inputs": [
        {
          "internalType": "address",
          "name": "",
          "type": "address"
        },
        {
          "internalType": "address",
          "name": "",
          "type": "address"
        }
      ],
      "name": "_allowance",
      "outputs": [
        {
          "internalType": "uint256",
          "name": "",
          "type": "uint256"
        }
      ],
      "stateMutability": "view",
      "type": "function"
    },
    {
      "inputs": [
        {
          "internalType": "address",
          "name": "",
          "type": "address"
        }
      ],
      "name": "_balances",
      "outputs": [
        {
          "internalType": "uint256",
          "name": "",
          "type": "uint256"
        }
      ],
      "stateMutability": "view",
      "type": "function"
    },
    {
      "inputs": [],
      "name": "_totalSupply",
      "outputs": [
        {
          "internalType": "uint256",
          "name": "",
          "type": "uint256"
        }
      ],
      "stateMutability": "view",
      "type": "function"
    },
    {
      "inputs": [],
      "name": "miner",
      "outputs": [
        {
          "internalType": "address",
          "name": "",
          "type": "address"
        }
      ],
      "stateMutability": "view",
      "type": "function"
    },
    {
      "inputs": [],
      "name": "name",
      "outputs": [
        {
          "internalType": "string",
          "name": "",
          "type": "string"
        }
      ],
      "stateMutability": "view",
      "type": "function"
    },
    {
      "inputs": [],
      "name": "totalSupply",
      "outputs": [
        {
          "internalType": "uint256",
          "name": "",
          "type": "uint256"
        }
      ],
      "stateMutability": "view",
      "type": "function"
    },
    {
      "inputs": [
        {
          "internalType": "address",
          "name": "account",
          "type": "address"
        }
      ],
      "name": "balanceOf",
      "outputs": [
        {
          "internalType": "uint256",
          "name": "",
          "type": "uint256"
        }
      ],
      "stateMutability": "view",
      "type": "function"
    },
    {
      "inputs": [
        {
          "internalType": "address",
          "name": "owner",
          "type": "address"
        },
        {
          "internalType": "address",
          "name": "spender",
          "type": "address"
        }
      ],
      "name": "allowance",
      "outputs": [
        {
          "internalType": "uint256",
          "name": "",
          "type": "uint256"
        }
      ],
      "stateMutability": "view",
      "type": "function"
    },
    {
      "inputs": [
        {
          "internalType": "address",
          "name": "_to",
          "type": "address"
        },
        {
          "internalType": "uint256",
          "name": "_value",
          "type": "uint256"
        }
      ],
      "name": "transfer",
      "outputs": [
        {
          "internalType": "bool",
          "name": "",
          "type": "bool"
        }
      ],
      "stateMutability": "nonpayable",
      "type": "function"
    },
    {
      "inputs": [
        {
          "internalType": "address",
          "name": "_spender",
          "type": "address"
        },
        {
          "internalType": "uint256",
          "name": "_value",
          "type": "uint256"
        }
      ],
      "name": "approve",
      "outputs": [
        {
          "internalType": "bool",
          "name": "",
          "type": "bool"
        }
      ],
      "stateMutability": "nonpayable",
      "type": "function"
    },
    {
      "inputs": [
        {
          "internalType": "address",
          "name": "_from",
          "type": "address"
        },
        {
          "internalType": "address",
          "name": "_to",
          "type": "address"
        },
        {
          "internalType": "uint256",
          "name": "_value",
          "type": "uint256"
        }
      ],
      "name": "transferFrom",
      "outputs": [
        {
          "internalType": "bool",
          "name": "",
          "type": "bool"
        }
      ],
      "stateMutability": "nonpayable",
      "type": "function"
    },
    {
      "inputs": [
        {
          "internalType": "address",
          "name": "_to",
          "type": "address"
        },
        {
          "internalType": "uint256",
          "name": "_number",
          "type": "uint256"
        }
      ],
      "name": "Mint",
      "outputs": [],
      "stateMutability": "nonpayable",
      "type": "function"
    }
  ],
  "bytecode": "0x60806040523480156200001157600080fd5b5060405162000a6b38038062000a6b833981016040819052620000349162000134565b81516200004990600190602085019062000071565b50600080546001600160a01b0319166001600160a01b03929092169190911790555062000278565b8280546200007f9062000225565b90600052602060002090601f016020900481019282620000a35760008555620000ee565b82601f10620000be57805160ff1916838001178555620000ee565b82800160010185558215620000ee579182015b82811115620000ee578251825591602001919060010190620000d1565b50620000fc92915062000100565b5090565b5b80821115620000fc576000815560010162000101565b80516001600160a01b03811681146200012f57600080fd5b919050565b600080604083850312156200014857600080fd5b82516001600160401b03808211156200016057600080fd5b818501915085601f8301126200017557600080fd5b8151818111156200018a576200018a62000262565b604051601f8201601f19908116603f01168101908382118183101715620001b557620001b562000262565b81604052828152602093508884848701011115620001d257600080fd5b600091505b82821015620001f65784820184015181830185015290830190620001d7565b82821115620002085760008484830101525b95506200021a91505085820162000117565b925050509250929050565b600181811c908216806200023a57607f821691505b602082108114156200025c57634e487b7160e01b600052602260045260246000fd5b50919050565b634e487b7160e01b600052604160045260246000fd5b6107e380620002886000396000f3fe608060405234801561001057600080fd5b50600436106100b45760003560e01c80633eaaf86b116100715780633eaaf86b1461015f5780636ebcf6071461016857806370a0823114610188578063a9059cbb146101b1578063dd336c12146101c4578063dd62ed3e146101ef57600080fd5b806306fdde03146100b9578063095ea7b3146100d75780630f6798a5146100fa57806318160ddd1461010f57806323b872dd14610121578063349dc32914610134575b600080fd5b6100c1610228565b6040516100ce91906106d8565b60405180910390f35b6100ea6100e53660046106ae565b6102b6565b60405190151581526020016100ce565b61010d6101083660046106ae565b610322565b005b6002545b6040519081526020016100ce565b6100ea61012f366004610672565b6103ab565b600054610147906001600160a01b031681565b6040516001600160a01b0390911681526020016100ce565b61011360025481565b61011361017636600461061d565b60036020526000908152604090205481565b61011361019636600461061d565b6001600160a01b031660009081526003602052604090205490565b6100ea6101bf3660046106ae565b610535565b6101136101d236600461063f565b600460209081526000928352604080842090915290825290205481565b6101136101fd36600461063f565b6001600160a01b03918216600090815260046020908152604080832093909416825291909152205490565b600180546102359061075c565b80601f01602080910402602001604051908101604052809291908181526020018280546102619061075c565b80156102ae5780601f10610283576101008083540402835291602001916102ae565b820191906000526020600020905b81548152906001019060200180831161029157829003601f168201915b505050505081565b3360008181526004602090815260408083206001600160a01b038716808552925280832085905551919290917f8c5be1e5ebec7d5bd14f71427d1e84f3dd0314c0f7b2291e5b200ac8c7c3b925906103119086815260200190565b60405180910390a350600192915050565b6000546001600160a01b0316331461033957600080fd5b6001600160a01b0382166000908152600360205260408120805483929061036190849061072d565b90915550506040518181526001600160a01b038316906000907fddf252ad1be2c89b69c2b068fc378daa952ba7f163c4a11628f55a4df523b3ef9060200160405180910390a35050565b6001600160a01b0383166000908152600360205260408120548211156103d057600080fd5b6001600160a01b038416600090815260046020908152604080832033845290915290205482111561040057600080fd5b336001600160a01b0385161461041557600080fd5b6001600160a01b0384166000908152600360205260408120805484929061043d908490610745565b91829055506001600160a01b03808716600090815260036020526040808220939093559086168152908120805485935090919061047b90849061072d565b91829055506001600160a01b0380861660009081526003602090815260408083209490945591881681526004825282812033825290915290812080548593509091906104c8908490610745565b91829055506001600160a01b03868116600081815260046020908152604080832033845282529182902094909455518681529187169350917fddf252ad1be2c89b69c2b068fc378daa952ba7f163c4a11628f55a4df523b3ef910160405180910390a35060019392505050565b3360009081526003602052604081205482111561055157600080fd5b3360009081526003602052604081208054849290610570908490610745565b918290555033600090815260036020526040808220929092556001600160a01b038616815290812080548593509091906105ab90849061072d565b91829055506001600160a01b038516600081815260036020908152604091829020939093555185815290925033917fddf252ad1be2c89b69c2b068fc378daa952ba7f163c4a11628f55a4df523b3ef9101610311565b80356001600160a01b038116811461061857600080fd5b919050565b60006020828403121561062f57600080fd5b61063882610601565b9392505050565b6000806040838503121561065257600080fd5b61065b83610601565b915061066960208401610601565b90509250929050565b60008060006060848603121561068757600080fd5b61069084610601565b925061069e60208501610601565b9150604084013590509250925092565b600080604083850312156106c157600080fd5b6106ca83610601565b946020939093013593505050565b600060208083528351808285015260005b81811015610705578581018301518582016040015282016106e9565b81811115610717576000604083870101525b50601f01601f1916929092016040019392505050565b6000821982111561074057610740610797565b500190565b60008282101561075757610757610797565b500390565b600181811c9082168061077057607f821691505b6020821081141561079157634e487b7160e01b600052602260045260246000fd5b50919050565b634e487b7160e01b600052601160045260246000fdfea2646970667358221220f14f7320b37da4a65c4f34b3b6ad2d4c6d0ce5c45c140d3f1dca887bb0beb10364736f6c63430008060033",
  "immutableReferences": {},
  "source": "// SPDX-License-Identifier: SimPL-2.0\r\npragma solidity >= 0.8.0;\r\n\r\nimport \"./IERC20.sol\";\r\n\r\n/// @author Samuel Fabrizi\r\n/// @title ERC20\r\n/// @notice This contract represents an ERC20 token  \r\ncontract ERC20 is IERC20 {\r\n\r\n    address                                         public miner;\r\n\tstring                                          public name;                    // token name              \r\n    uint256                                         public _totalSupply;            // total supply\r\n    mapping(address => uint256)                     public _balances;               // map of balances\r\n    mapping(address => mapping(address => uint256)) public _allowance;              // map of allowance \r\n    \r\n    modifier canOperate () {\r\n        require(msg.sender == miner);\r\n        _;\r\n    }\r\n\r\n    \r\n    constructor (string memory _name, address _miner) {\r\n        name = _name;\r\n        miner = _miner;\r\n    }\r\n\r\n    \r\n    function totalSupply() external view override returns (uint256){\r\n        \r\n        return _totalSupply;\r\n    }\r\n\r\n    \r\n    function balanceOf(address account) external view override returns (uint256){\r\n\r\n        return _balances[account];\r\n    }\r\n\r\n\r\n    function allowance(address owner, address spender) external override view returns (uint256){\r\n\r\n        return _allowance[owner][spender];\r\n    }\r\n\r\n\r\n    function transfer(address _to, uint256 _value) public override returns (bool) {\r\n        require(_balances[msg.sender] >= _value);\r\n        \r\n        _balances[msg.sender] = _balances[msg.sender] -= _value;\r\n        _balances[_to] = _balances[_to] += _value;\r\n        \r\n        emit Transfer(msg.sender, _to, _value);\r\n        \r\n        return true;\r\n    }\r\n    \r\n\r\n    function approve(address _spender, uint256 _value) public override returns (bool){\r\n        _allowance[msg.sender][_spender] = _value;\r\n        \r\n        emit Approval(msg.sender, _spender, _value);\r\n        \r\n        return true;\r\n    }\r\n    \r\n\r\n    function transferFrom(address _from, address _to, uint256 _value) public override returns (bool){\r\n        require(_balances[_from] >= _value);\r\n        require(_allowance[_from][msg.sender] >= _value);\r\n        require(msg.sender == _from);\r\n\r\n        _balances[_from] = _balances[_from] -= _value;\r\n        _balances[_to] = _balances[_to] += _value;\r\n        \r\n        _allowance[_from][msg.sender] = _allowance[_from][msg.sender] -= _value;\r\n        \r\n        emit Transfer(_from, _to, _value);\r\n        \r\n        return true;\r\n    }\r\n\r\n    function Mint(address _to, uint256 _number) external canOperate {\r\n        \r\n        _balances[_to] += _number; \r\n        \r\n        emit Transfer(address(0x0), _to, _number);\r\n    }\r\n\r\n\r\n}",
  "sourcePath": "/home/lapulasman//custumServe/contracts/Token/ERC20.sol",
  "compiler": {
    "name": "solc",
    "version": "0.8.6+commit.11564f7e.Emscripten.clang"
  },
  "schemaVersion": "3.3.4",
  "updatedAt": "2021-08-31T08:06:16.492Z",
  "devdoc": {
    "author": "Samuel Fabrizi",
    "kind": "dev",
    "methods": {
      "allowance(address,address)": {
        "details": "Returns the remaining number of tokens that `spender` will be allowed to spend on behalf of `owner` through {transferFrom}. This is zero by default. This value changes when {approve} or {transferFrom} are called."
      },
      "approve(address,uint256)": {
        "details": "Sets `amount` as the allowance of `spender` over the caller's tokens. Returns a boolean value indicating whether the operation succeeded. IMPORTANT: Beware that changing an allowance with this method brings the risk that someone may use both the old and the new allowance by unfortunate transaction ordering. One possible solution to mitigate this race condition is to first reduce the spender's allowance to 0 and set the desired value afterwards: https://github.com/ethereum/EIPs/issues/20#issuecomment-263524729 Emits an {Approval} event."
      },
      "balanceOf(address)": {
        "details": "Returns the amount of tokens owned by `account`."
      },
      "totalSupply()": {
        "details": "Returns the amount of tokens in existence."
      },
      "transfer(address,uint256)": {
        "details": "Moves `amount` tokens from the caller's account to `recipient`. Returns a boolean value indicating whether the operation succeeded. Emits a {Transfer} event."
      },
      "transferFrom(address,address,uint256)": {
        "details": "Moves `amount` tokens from `sender` to `recipient` using the allowance mechanism. `amount` is then deducted from the caller's allowance. Returns a boolean value indicating whether the operation succeeded. Emits a {Transfer} event."
      }
    },
    "title": "ERC20",
    "version": 1
  },
  "userdoc": {
    "kind": "user",
    "methods": {},
    "notice": "This contract represents an ERC20 token  ",
    "version": 1
  }
}