{
  "contractName": "FunctionRegistry",
  "abi": [
    {
      "inputs": [
        {
          "internalType": "address",
          "name": "_owner",
          "type": "address"
        }
      ],
      "stateMutability": "nonpayable",
      "type": "constructor"
    },
    {
      "inputs": [
        {
          "internalType": "address",
          "name": "_to",
          "type": "address"
        }
      ],
      "name": "changeOwner",
      "outputs": [],
      "stateMutability": "nonpayable",
      "type": "function"
    },
    {
      "inputs": [],
      "name": "owner",
      "outputs": [
        {
          "internalType": "address",
          "name": "",
          "type": "address"
        }
      ],
      "stateMutability": "view",
      "type": "function"
    },
    {
      "inputs": [
        {
          "internalType": "contract RatingFunction",
          "name": "_function",
          "type": "address"
        },
        {
          "internalType": "bytes32",
          "name": "_name",
          "type": "bytes32"
        }
      ],
      "name": "pushFunction",
      "outputs": [],
      "stateMutability": "nonpayable",
      "type": "function"
    },
    {
      "inputs": [
        {
          "internalType": "uint256",
          "name": "_index",
          "type": "uint256"
        }
      ],
      "name": "getFunction",
      "outputs": [
        {
          "internalType": "contract RatingFunction",
          "name": "",
          "type": "address"
        }
      ],
      "stateMutability": "view",
      "type": "function"
    },
    {
      "inputs": [
        {
          "internalType": "contract RatingFunction",
          "name": "_function",
          "type": "address"
        }
      ],
      "name": "checkRegistry",
      "outputs": [
        {
          "internalType": "bool",
          "name": "",
          "type": "bool"
        }
      ],
      "stateMutability": "view",
      "type": "function"
    },
    {
      "inputs": [],
      "name": "getIds",
      "outputs": [
        {
          "internalType": "bytes32[]",
          "name": "",
          "type": "bytes32[]"
        }
      ],
      "stateMutability": "view",
      "type": "function"
    }
  ],
  "bytecode": "0x608060405234801561001057600080fd5b506040516104d53803806104d583398101604081905261002f91610054565b600080546001600160a01b0319166001600160a01b0392909216919091179055610084565b60006020828403121561006657600080fd5b81516001600160a01b038116811461007d57600080fd5b9392505050565b610442806100936000396000f3fe608060405234801561001057600080fd5b50600436106100625760003560e01c80630e097de7146100675780632b1056631461009757806340393cff146100ac5780638da5cb5b146100c1578063a6f9dae1146100d4578063e03aefc2146100e7575b600080fd5b61007a610075366004610381565b610123565b6040516001600160a01b0390911681526020015b60405180910390f35b61009f6101a2565b60405161008e919061039a565b6100bf6100ba366004610355565b6101fa565b005b60005461007a906001600160a01b031681565b6100bf6100e2366004610331565b6102c5565b6101136100f5366004610331565b6001600160a01b031660009081526003602052604090205460ff1690565b604051901515815260200161008e565b600060015482106101745760405162461bcd60e51b8152602060048201526016602482015275092dcecc2d8d2c8408ceadcc6e8d2dedc40d2dcc8caf60531b60448201526064015b60405180910390fd5b60018281548110610187576101876103de565b6000918252602090912001546001600160a01b031692915050565b606060028054806020026020016040519081016040528092919081815260200182805480156101f057602002820191906000526020600020905b8154815260200190600101908083116101dc575b5050505050905090565b6000546001600160a01b031633146102445760405162461bcd60e51b815260206004820152600d60248201526c2737ba103a34329037bbb732b960991b604482015260640161016b565b60036020526001805480820182557fb10e2d527612073b26eecdfd717e6a320cf44b4afac2b0732d9fcbe2b7fa0cf60180546001600160a01b0319166001600160a01b03909416939093179092556002805492830181556000527f405787fa12a823e0f2b7631cc41b3ba8828b3321ca811111fa75cd3aa3bb5ace90910155565b6000546001600160a01b0316331461030f5760405162461bcd60e51b815260206004820152600d60248201526c2737ba103a34329037bbb732b960991b604482015260640161016b565b600080546001600160a01b0319166001600160a01b0392909216919091179055565b60006020828403121561034357600080fd5b813561034e816103f4565b9392505050565b6000806040838503121561036857600080fd5b8235610373816103f4565b946020939093013593505050565b60006020828403121561039357600080fd5b5035919050565b6020808252825182820181905260009190848201906040850190845b818110156103d2578351835292840192918401916001016103b6565b50909695505050505050565b634e487b7160e01b600052603260045260246000fd5b6001600160a01b038116811461040957600080fd5b5056fea264697066735822122076b997f8ef1eed912cfa2a5389878d74585d5b4779dd9850392ad25fc07fa16864736f6c63430008060033",
  "immutableReferences": {},
  "source": "// SPDX-License-Identifier: SimPL-2.0\r\n\r\npragma solidity >= 0.8.0;\r\n\r\n//.\r\nimport {Ownable} from \"./Interfaces.sol\";\r\nimport {RatingFunction, SimpleAvarageFunction} from \"./RatingFunction.sol\";\r\n\r\n/// @author Andrea Lisi\r\n/// @title FunctionRegistry\r\n/// @notice This contracts stores a list of RatingFunctions. An Item can pick from this registry the function it wants to use to compute its final score\r\ncontract FunctionRegistry is Ownable {\r\n\r\n    RatingFunction[] private registry;  // Se metto public questo mi evito la funzione getFunction\r\n    bytes32[] private ids;\r\n    mapping(address => bool) haveReistry;\r\n\r\n    constructor(address _owner) Ownable(_owner) {}\r\n\r\n    /// @notice Add a new RatingFunction to the registry, only if the caller is the owner of this registry (avoid spam)\r\n    /// @param _function The Function to add\r\n    /// @param _name A name for the Function\r\n    function pushFunction(RatingFunction _function, bytes32 _name) external isOwner {\r\n        \r\n        haveReistry[address(_function)] == true;\r\n        registry.push(_function);\r\n        ids.push(_name);\r\n    }\r\n\r\n    /// @notice Get the RatingFunction at a certain index\r\n    /// @param _index The index of the Function to retrieve\r\n    /// @return The RatingFunction address\r\n    function getFunction(uint _index) external view returns(RatingFunction) {\r\n\r\n        require(_index >= 0 && _index < registry.length, \"Invalid Function index\");\r\n\r\n        return registry[_index];\r\n    }\r\n\r\n    function checkRegistry(RatingFunction _function) external view returns(bool) {\r\n        return haveReistry[address(_function)];\r\n    }\r\n\r\n    /// @notice Get the list of the names of the stored RatingFunctionFunctions\r\n    /// @return The list of RatingFunction\r\n    function getIds() external view returns(bytes32[] memory) {\r\n\r\n        return ids;\r\n    }\r\n}\r\n",
  "sourcePath": "/home/lapulasman//custumServe/contracts/FunctionRegistry.sol",
  "compiler": {
    "name": "solc",
    "version": "0.8.6+commit.11564f7e.Emscripten.clang"
  },
  "schemaVersion": "3.3.4",
  "updatedAt": "2021-08-31T08:06:16.468Z",
  "devdoc": {
    "author": "Andrea Lisi",
    "kind": "dev",
    "methods": {
      "changeOwner(address)": {
        "params": {
          "_to": "The new owner of this contract "
        }
      },
      "getFunction(uint256)": {
        "params": {
          "_index": "The index of the Function to retrieve"
        },
        "returns": {
          "_0": "The RatingFunction address"
        }
      },
      "getIds()": {
        "returns": {
          "_0": "The list of RatingFunction"
        }
      },
      "pushFunction(address,bytes32)": {
        "params": {
          "_function": "The Function to add",
          "_name": "A name for the Function"
        }
      }
    },
    "title": "FunctionRegistry",
    "version": 1
  },
  "userdoc": {
    "kind": "user",
    "methods": {
      "changeOwner(address)": {
        "notice": "This function provides the possibility to change the owner"
      },
      "getFunction(uint256)": {
        "notice": "Get the RatingFunction at a certain index"
      },
      "getIds()": {
        "notice": "Get the list of the names of the stored RatingFunctionFunctions"
      },
      "pushFunction(address,bytes32)": {
        "notice": "Add a new RatingFunction to the registry, only if the caller is the owner of this registry (avoid spam)"
      }
    },
    "notice": "This contracts stores a list of RatingFunctions. An Item can pick from this registry the function it wants to use to compute its final score",
    "version": 1
  }
}