{
  "contractName": "Item",
  "abi": [
    {
      "inputs": [
        {
          "internalType": "string",
          "name": "_name",
          "type": "string"
        },
        {
          "internalType": "address",
          "name": "_owner",
          "type": "address"
        },
        {
          "internalType": "address",
          "name": "_ms",
          "type": "address"
        },
        {
          "internalType": "string",
          "name": "_nameToken",
          "type": "string"
        },
        {
          "internalType": "uint256",
          "name": "_value",
          "type": "uint256"
        }
      ],
      "stateMutability": "nonpayable",
      "type": "constructor"
    },
    {
      "anonymous": false,
      "inputs": [
        {
          "indexed": false,
          "internalType": "address",
          "name": "_to",
          "type": "address"
        }
      ],
      "name": "NewPermission",
      "type": "event"
    },
    {
      "anonymous": false,
      "inputs": [
        {
          "indexed": false,
          "internalType": "contract Question",
          "name": "_question",
          "type": "address"
        }
      ],
      "name": "NewQuestion",
      "type": "event"
    },
    {
      "anonymous": false,
      "inputs": [
        {
          "indexed": false,
          "internalType": "address",
          "name": "_to",
          "type": "address"
        }
      ],
      "name": "PermissionRevoked",
      "type": "event"
    },
    {
      "anonymous": false,
      "inputs": [
        {
          "indexed": false,
          "internalType": "contract Item",
          "name": "_item",
          "type": "address"
        },
        {
          "indexed": false,
          "internalType": "contract User",
          "name": "_user",
          "type": "address"
        },
        {
          "indexed": false,
          "internalType": "uint256",
          "name": "_amount",
          "type": "uint256"
        },
        {
          "indexed": false,
          "internalType": "uint256",
          "name": "_numberOfToken",
          "type": "uint256"
        }
      ],
      "name": "SuccessfulPayment",
      "type": "event"
    },
    {
      "stateMutability": "nonpayable",
      "type": "fallback"
    },
    {
      "inputs": [],
      "name": "MS",
      "outputs": [
        {
          "internalType": "address",
          "name": "",
          "type": "address"
        }
      ],
      "stateMutability": "view",
      "type": "function"
    },
    {
      "inputs": [
        {
          "internalType": "address",
          "name": "_to",
          "type": "address"
        }
      ],
      "name": "changeOwner",
      "outputs": [],
      "stateMutability": "nonpayable",
      "type": "function"
    },
    {
      "inputs": [
        {
          "internalType": "address",
          "name": "_of",
          "type": "address"
        }
      ],
      "name": "checkForPermission",
      "outputs": [
        {
          "internalType": "bool",
          "name": "",
          "type": "bool"
        }
      ],
      "stateMutability": "view",
      "type": "function"
    },
    {
      "inputs": [],
      "name": "name",
      "outputs": [
        {
          "internalType": "string",
          "name": "",
          "type": "string"
        }
      ],
      "stateMutability": "view",
      "type": "function"
    },
    {
      "inputs": [],
      "name": "owner",
      "outputs": [
        {
          "internalType": "address",
          "name": "",
          "type": "address"
        }
      ],
      "stateMutability": "view",
      "type": "function"
    },
    {
      "inputs": [
        {
          "internalType": "address",
          "name": "",
          "type": "address"
        }
      ],
      "name": "permissionMap",
      "outputs": [
        {
          "internalType": "bool",
          "name": "granted",
          "type": "bool"
        },
        {
          "internalType": "uint256",
          "name": "periodStart",
          "type": "uint256"
        }
      ],
      "stateMutability": "view",
      "type": "function"
    },
    {
      "inputs": [
        {
          "internalType": "address",
          "name": "_to",
          "type": "address"
        }
      ],
      "name": "revokePermission",
      "outputs": [],
      "stateMutability": "nonpayable",
      "type": "function"
    },
    {
      "inputs": [],
      "name": "tokenContract",
      "outputs": [
        {
          "internalType": "contract ERC20",
          "name": "",
          "type": "address"
        }
      ],
      "stateMutability": "view",
      "type": "function"
    },
    {
      "inputs": [],
      "name": "value",
      "outputs": [
        {
          "internalType": "uint256",
          "name": "",
          "type": "uint256"
        }
      ],
      "stateMutability": "view",
      "type": "function"
    },
    {
      "inputs": [
        {
          "internalType": "address",
          "name": "_ms",
          "type": "address"
        },
        {
          "internalType": "string",
          "name": "_ipfs",
          "type": "string"
        }
      ],
      "name": "createQuestion",
      "outputs": [
        {
          "internalType": "address",
          "name": "",
          "type": "address"
        }
      ],
      "stateMutability": "nonpayable",
      "type": "function"
    },
    {
      "inputs": [
        {
          "internalType": "uint256",
          "name": "_amount",
          "type": "uint256"
        },
        {
          "internalType": "uint256",
          "name": "_totalTokenAmount",
          "type": "uint256"
        }
      ],
      "name": "successfulPayment",
      "outputs": [],
      "stateMutability": "payable",
      "type": "function"
    },
    {
      "inputs": [],
      "name": "getActualPaymentValue",
      "outputs": [
        {
          "internalType": "uint256",
          "name": "",
          "type": "uint256"
        }
      ],
      "stateMutability": "view",
      "type": "function"
    },
    {
      "inputs": [],
      "name": "getTokenOwned",
      "outputs": [
        {
          "internalType": "uint256",
          "name": "",
          "type": "uint256"
        }
      ],
      "stateMutability": "view",
      "type": "function"
    }
  ],
  "bytecode": "0x60806040523480156200001157600080fd5b50604051620035c9380380620035c98339810160408190526200003491620002c7565b600080546001600160a01b0319166001600160a01b038616179055806200005a57600080fd5b600380546001600160a01b0319166001600160a01b03851617905584516200008a90600290602088019062000157565b50306040516200009a90620001e6565b6001600160a01b039091168152602001604051809103906000f080158015620000c7573d6000803e3d6000fd5b50600660006101000a8154816001600160a01b0302191690836001600160a01b031602179055508130604051620000fe90620001f4565b6200010b92919062000360565b604051809103906000f08015801562000128573d6000803e3d6000fd5b50600480546001600160a01b0319166001600160a01b0392909216919091179055600555506200042c92505050565b8280546200016590620003d9565b90600052602060002090601f016020900481019282620001895760008555620001d4565b82601f10620001a457805160ff1916838001178555620001d4565b82800160010185558215620001d4579182015b82811115620001d4578251825591602001919060010190620001b7565b50620001e292915062000202565b5090565b6106c0806200249e83390190565b610a6b8062002b5e83390190565b5b80821115620001e2576000815560010162000203565b80516001600160a01b03811681146200023157600080fd5b919050565b600082601f8301126200024857600080fd5b81516001600160401b038082111562000265576200026562000416565b604051601f8301601f19908116603f0116810190828211818310171562000290576200029062000416565b81604052838152866020858801011115620002aa57600080fd5b620002bd846020830160208901620003a6565b9695505050505050565b600080600080600060a08688031215620002e057600080fd5b85516001600160401b0380821115620002f857600080fd5b6200030689838a0162000236565b9650620003166020890162000219565b9550620003266040890162000219565b945060608801519150808211156200033d57600080fd5b506200034c8882890162000236565b925050608086015190509295509295909350565b604081526000835180604084015262000381816060850160208801620003a6565b6001600160a01b0393909316602083015250601f91909101601f191601606001919050565b60005b83811015620003c3578181015183820152602001620003a9565b83811115620003d3576000848401525b50505050565b600181811c90821680620003ee57607f821691505b602082108114156200041057634e487b7160e01b600052602260045260246000fd5b50919050565b634e487b7160e01b600052604160045260246000fd5b612062806200043c6000396000f3fe608060405260043610620000d45760003560e01c80637c3102d8116200008b578063a6f9dae11162000061578063a6f9dae11462000279578063af424d3a146200029e578063e7be830c14620002b6578063f214597114620002db57620000d4565b80637c3102d814620001c95780638da5cb5b1462000232578063a3bf5b9a146200025457620000d4565b806306fdde0314620000e45780630e60a2b81462000114578063346fa5ed146200012d5780633fa4f245146200016857806343f575af146200018f57806355a373d614620001a7575b348015620000e157600080fd5b50005b348015620000f157600080fd5b50620000fc62000331565b6040516200010b919062000dd3565b60405180910390f35b6200012b6200012536600462000d29565b620003c7565b005b3480156200013a57600080fd5b506003546200014f906001600160a01b031681565b6040516001600160a01b0390911681526020016200010b565b3480156200017557600080fd5b506200018060055481565b6040519081526020016200010b565b3480156200019c57600080fd5b506200018062000628565b348015620001b457600080fd5b506004546200014f906001600160a01b031681565b348015620001d657600080fd5b5062000221620001e836600462000bf8565b6001600160a01b03166000908152600160208181526040928390208351808501909452805460ff16151580855292015492019190915290565b60405190151581526020016200010b565b3480156200023f57600080fd5b506000546200014f906001600160a01b031681565b3480156200026157600080fd5b506200012b6200027336600462000bf8565b620006b2565b3480156200028657600080fd5b506200012b6200029836600462000bf8565b620007ae565b348015620002ab57600080fd5b50620001806200081c565b348015620002c357600080fd5b506200014f620002d536600462000c1d565b620008cb565b348015620002e857600080fd5b5062000319620002fa36600462000bf8565b6001602081905260009182526040909120805491015460ff9091169082565b6040805192151583526020830191909152016200010b565b60028054620003409062000e1d565b80601f01602080910402602001604051908101604052809291908181526020018280546200036e9062000e1d565b8015620003bf5780601f106200039357610100808354040283529160200191620003bf565b820191906000526020600020905b815481529060010190602001808311620003a157829003601f168201915b505050505081565b6003546040516396210c5160e01b81523360048201819052916001600160a01b03169081906396210c519060240160206040518083038186803b1580156200040e57600080fd5b505afa15801562000423573d6000803e3d6000fd5b505050506040513d601f19601f8201168201806040525081019062000449919062000ceb565b15156001146200045857600080fd5b60055462000467848662000de8565b14620004cb5760405162461bcd60e51b815260206004820152602860248201527f53756d206f6620616d6f756e7420616e6420746f6b656e7320646f6573206e6f60448201526703a1036b0ba31b4160c51b60648201526084015b60405180910390fd5b8334148015620004db5750600084115b620004e557600080fd5b83156200052c57600080546040516001600160a01b0390911691829187156108fc0291889190818181858888f1935050505015801562000529573d6000803e3d6000fd5b50505b8215620005c757600480546040516323b872dd60e01b81526001600160a01b0385811693820193909352306024820152604481018690529116906323b872dd90606401602060405180830381600087803b1580156200058a57600080fd5b505af11580156200059f573d6000803e3d6000fd5b505050506040513d601f19601f82011682018060405250810190620005c5919062000ceb565b505b620005d28262000a78565b604080513081526001600160a01b0384166020820152908101859052606081018490527f7663c1b175df28255c6f251b98ef25d213712d232d2ef6891e6b32c3d085a39c9060800160405180910390a150505050565b600480546040516370a0823160e01b815233928101929092526000916001600160a01b03909116906370a082319060240160206040518083038186803b1580156200067257600080fd5b505afa15801562000687573d6000803e3d6000fd5b505050506040513d601f19601f82011682018060405250810190620006ad919062000d0f565b905090565b336001600160a01b0382161480620006d457506000546001600160a01b031633145b620007365760405162461bcd60e51b815260206004820152602b60248201527f596f752063616e6e6f74207265766f6b65207065726d697373696f6e20746f2060448201526a6f7468657220757365727360a81b6064820152608401620004c2565b604080518082018252600080825260208083018281526001600160a01b0386168084526001808452938690209451855460ff19169015151785559051939092019290925591519182527f3541f93cbae8c4be65491b824efe1570976e740b18c6aa441db5291f4de4c92191015b60405180910390a150565b6000546001600160a01b03163314620007fa5760405162461bcd60e51b815260206004820152600d60248201526c2737ba103a34329037bbb732b960991b6044820152606401620004c2565b600080546001600160a01b0319166001600160a01b0392909216919091179055565b600480546040516370a0823160e01b8152339281019290925260009182916001600160a01b0316906370a082319060240160206040518083038186803b1580156200086657600080fd5b505afa1580156200087b573d6000803e3d6000fd5b505050506040513d601f19601f82011682018060405250810190620008a1919062000d0f565b90506005548110620008b557600091505090565b80600554620008c5919062000e03565b91505090565b6003546000906001600160a01b03848116911614620008e957600080fd5b6003546040516396210c5160e01b815233600482015230916001600160a01b03169081906396210c519060240160206040518083038186803b1580156200092f57600080fd5b505afa15801562000944573d6000803e3d6000fd5b505050506040513d601f19601f820116820180604052508101906200096a919062000ceb565b6200097457600080fd5b6003546040516000916001600160a01b03169084908790620009969062000bcd565b620009a49392919062000d9c565b604051809103906000f080158015620009c1573d6000803e3d6000fd5b50600654604051635e48156960e11b81526001600160a01b03808416600483015292935091169063bc902ad290602401600060405180830381600087803b15801562000a0c57600080fd5b505af115801562000a21573d6000803e3d6000fd5b5050505062000a33816103e862000b5f565b6040516001600160a01b03821681527f546aacc7eb3d365d4e86f9a8293c482704359ea186ac804858c377040b7b42559060200160405180910390a195945050505050565b6000546001600160a01b038281169116141562000aed5760405162461bcd60e51b815260206004820152602c60248201527f546865206f776e65722063616e6e6f74206772616e74207065726d697373696f60448201526b37103a37903434b6b9b2b63360a11b6064820152608401620004c2565b60408051808201825260018082524260208084019182526001600160a01b03861660008181528483528690209451855460ff19169015151785559151939092019290925591519081527fceebffeea71a081da3958f44bb5272c02bc06e6a287e49bec90d854491c871349101620007a3565b60048054604051630f6798a560e01b81526001600160a01b038581169382019390935260248101849052911690630f6798a590604401600060405180830381600087803b15801562000bb057600080fd5b505af115801562000bc5573d6000803e3d6000fd5b505050505050565b6111a68062000e8783390190565b80356001600160a01b038116811462000bf357600080fd5b919050565b60006020828403121562000c0b57600080fd5b62000c168262000bdb565b9392505050565b6000806040838503121562000c3157600080fd5b62000c3c8362000bdb565b9150602083013567ffffffffffffffff8082111562000c5a57600080fd5b818501915085601f83011262000c6f57600080fd5b81358181111562000c845762000c8462000e70565b604051601f8201601f19908116603f0116810190838211818310171562000caf5762000caf62000e70565b8160405282815288602084870101111562000cc957600080fd5b8260208601602083013760006020848301015280955050505050509250929050565b60006020828403121562000cfe57600080fd5b8151801515811462000c1657600080fd5b60006020828403121562000d2257600080fd5b5051919050565b6000806040838503121562000d3d57600080fd5b50508035926020909101359150565b6000815180845260005b8181101562000d745760208185018101518683018201520162000d56565b8181111562000d87576000602083870101525b50601f01601f19169290920160200192915050565b6001600160a01b0384811682528316602082015260606040820181905260009062000dca9083018462000d4c565b95945050505050565b60208152600062000c16602083018462000d4c565b6000821982111562000dfe5762000dfe62000e5a565b500190565b60008282101562000e185762000e1862000e5a565b500390565b600181811c9082168062000e3257607f821691505b6020821081141562000e5457634e487b7160e01b600052602260045260246000fd5b50919050565b634e487b7160e01b600052601160045260246000fd5b634e487b7160e01b600052604160045260246000fdfe60806040523480156200001157600080fd5b50604051620011a6380380620011a683398101604081905262000034916200013f565b600080546001600160a01b038086166001600160a01b031992831617909255600180549285169290911691909117905580516200007990600290602084019062000099565b5050600380546001600160a01b03191633179055505042600555620002b5565b828054620000a79062000249565b90600052602060002090601f016020900481019282620000cb576000855562000116565b82601f10620000e657805160ff191683800117855562000116565b8280016001018555821562000116579182015b8281111562000116578251825591602001919060010190620000f9565b506200012492915062000128565b5090565b5b8082111562000124576000815560010162000129565b6000806000606084860312156200015557600080fd5b835162000162816200029c565b8093505060208085015162000177816200029c565b60408601519093506001600160401b03808211156200019557600080fd5b818701915087601f830112620001aa57600080fd5b815181811115620001bf57620001bf62000286565b604051601f8201601f19908116603f01168101908382118183101715620001ea57620001ea62000286565b816040528281528a868487010111156200020357600080fd5b600093505b8284101562000227578484018601518185018701529285019262000208565b82841115620002395760008684830101525b8096505050505050509250925092565b600181811c908216806200025e57607f821691505b602082108114156200028057634e487b7160e01b600052602260045260246000fd5b50919050565b634e487b7160e01b600052604160045260246000fd5b6001600160a01b0381168114620002b257600080fd5b50565b610ee180620002c56000396000f3fe608060405234801561001057600080fd5b506004361061009e5760003560e01c8063c4bebf9f11610066578063c4bebf9f1461012a578063c7a66eb31461013d578063d7959cf914610150578063e336846f14610165578063f2a4a82e1461017857600080fd5b806316ada547146100a357806317599cc5146100bf578063346fa5ed146100e15780633a36dd861461010c5780634ee4f58c14610115575b600080fd5b6100ac60055481565b6040519081526020015b60405180910390f35b6100d26100cd366004610c8a565b61018b565b6040516100b693929190610dd5565b6000546100f4906001600160a01b031681565b6040516001600160a01b0390911681526020016100b6565b6100ac60045481565b610128610123366004610cbc565b61023f565b005b610128610138366004610b5b565b610734565b6003546100f4906001600160a01b031681565b6101586109a1565b6040516100b69190610d98565b6100ac610173366004610c5e565b610a2f565b6001546100f4906001600160a01b031681565b6006602052600090815260409020805481906101a690610e03565b80601f01602080910402602001604051908101604052809291908181526020018280546101d290610e03565b801561021f5780601f106101f45761010080835404028352916020019161021f565b820191906000526020600020905b81548152906001019060200180831161020257829003601f168201915b50505050600183015460029093015491926001600160a01b031691905083565b6000546001600160a01b0383811691161461025957600080fd5b60008381526006602090815260408083203380855260059091019092529091205460ff161561028757600080fd5b600154604051630f86205b60e31b81523360048201526001600160a01b0390911690637c3102d89060240160206040518083038186803b1580156102ca57600080fd5b505afa1580156102de573d6000803e3d6000fd5b505050506040513d601f19601f820116820180604052508101906103029190610c1f565b151560011461031057600080fd5b60018260ff16101580156103285750600a8260ff1611155b61036d5760405162461bcd60e51b815260206004820152601260248201527153636f7265206f7574206f66207363616c6560701b604482015260640160405180910390fd5b6003546001600160a01b038281169116141561041157806001600160a01b031663cb0210a06040518163ffffffff1660e01b8152600401600060405180830381600087803b1580156103be57600080fd5b505af11580156103d2573d6000803e3d6000fd5b505060408051308152602081018890527f4de5afdb49140b347eafa0ef9f3bf23d9a98cbea03936e16cdfcfc9825657df2935001905060405180910390a15b600084815260066020908152604082206003810180546001808201835582865284862060ff891692019190915560049092018054928301815580855292842090910180546001600160a01b0319166001600160a01b038616179055918690525490541461048057610480610e67565b600160009054906101000a90046001600160a01b03166001600160a01b03166355a373d66040518163ffffffff1660e01b815260040160206040518083038186803b1580156104ce57600080fd5b505afa1580156104e2573d6000803e3d6000fd5b505050506040513d601f19601f820116820180604052508101906105069190610c41565b60405163a9059cbb60e01b81526001600160a01b03838116600483015260016024830152919091169063a9059cbb90604401602060405180830381600087803b15801561055257600080fd5b505af1158015610566573d6000803e3d6000fd5b505050506040513d601f19601f8201168201806040525081019061058a9190610c1f565b5060068260ff1611156106b757600160009054906101000a90046001600160a01b03166001600160a01b03166355a373d66040518163ffffffff1660e01b815260040160206040518083038186803b1580156105e557600080fd5b505afa1580156105f9573d6000803e3d6000fd5b505050506040513d601f19601f8201168201806040525081019061061d9190610c41565b60008581526006602052604090819020600190810154915163a9059cbb60e01b81526001600160a01b039283166004820152602481019190915291169063a9059cbb90604401602060405180830381600087803b15801561067d57600080fd5b505af1158015610691573d6000803e3d6000fd5b505050506040513d601f19601f820116820180604052508101906106b59190610c1f565b505b60008481526006602090815260408083206001600160a01b0385168085526005909101835292819020805460ff19166001179055805187815260ff8616928101929092528101919091527f2e8455e529a2fe8748bdedc153ce3a4be1d07b493f18c3aeb1169be2603a3bf59060600160405180910390a150505050565b6000546001600160a01b0383811691161461074e57600080fd5b60035433906001600160a01b031681141561076857600080fd5b600154604051630f86205b60e31b81526001600160a01b03838116600483015290911690637c3102d89060240160206040518083038186803b1580156107ad57600080fd5b505afa1580156107c1573d6000803e3d6000fd5b505050506040513d601f19601f820116820180604052508101906107e59190610c1f565b15156001146107f357600080fd5b6004805490600061080383610e3e565b90915550506004546000908152600660209081526040909120835161082a92850190610ac2565b50600480546000908152600660209081526040808320600190810180546001600160a01b0319166001600160a01b0388811691909117909155855485529382902042600290910155548151632ad1b9eb60e11b815291519316936355a373d6938282019392909190829003018186803b1580156108a657600080fd5b505afa1580156108ba573d6000803e3d6000fd5b505050506040513d601f19601f820116820180604052508101906108de9190610c41565b60405163a9059cbb60e01b81526001600160a01b038381166004830152600a6024830152919091169063a9059cbb90604401602060405180830381600087803b15801561092a57600080fd5b505af115801561093e573d6000803e3d6000fd5b505050506040513d601f19601f820116820180604052508101906109629190610c1f565b507f3c4b2b3d400dd7f23ad5063b756a1e92dc8fac1a81212972d9dfba46abaabb008282604051610994929190610dab565b60405180910390a1505050565b600280546109ae90610e03565b80601f01602080910402602001604051908101604052809291908181526020018280546109da90610e03565b8015610a275780601f106109fc57610100808354040283529160200191610a27565b820191906000526020600020905b815481529060010190602001808311610a0a57829003601f168201915b505050505081565b6000818152600660205260408082209051630ac3f68360e11b81526001600160a01b03851691631587ed0691610a6b9160030190600401610d51565b60206040518083038186803b158015610a8357600080fd5b505afa158015610a97573d6000803e3d6000fd5b505050506040513d601f19601f82011682018060405250810190610abb9190610ca3565b9392505050565b828054610ace90610e03565b90600052602060002090601f016020900481019282610af05760008555610b36565b82601f10610b0957805160ff1916838001178555610b36565b82800160010185558215610b36579182015b82811115610b36578251825591602001919060010190610b1b565b50610b42929150610b46565b5090565b5b80821115610b425760008155600101610b47565b60008060408385031215610b6e57600080fd5b8235610b7981610e93565b9150602083013567ffffffffffffffff80821115610b9657600080fd5b818501915085601f830112610baa57600080fd5b813581811115610bbc57610bbc610e7d565b604051601f8201601f19908116603f01168101908382118183101715610be457610be4610e7d565b81604052828152886020848701011115610bfd57600080fd5b8260208601602083013760006020848301015280955050505050509250929050565b600060208284031215610c3157600080fd5b81518015158114610abb57600080fd5b600060208284031215610c5357600080fd5b8151610abb81610e93565b60008060408385031215610c7157600080fd5b8235610c7c81610e93565b946020939093013593505050565b600060208284031215610c9c57600080fd5b5035919050565b600060208284031215610cb557600080fd5b5051919050565b600080600060608486031215610cd157600080fd5b833592506020840135610ce381610e93565b9150604084013560ff81168114610cf957600080fd5b809150509250925092565b6000815180845260005b81811015610d2a57602081850181015186830182015201610d0e565b81811115610d3c576000602083870101525b50601f01601f19169290920160200192915050565b6020808252825482820181905260008481528281209092916040850190845b81811015610d8c57835483526001938401939285019201610d70565b50909695505050505050565b602081526000610abb6020830184610d04565b604081526000610dbe6040830185610d04565b905060018060a01b03831660208301529392505050565b606081526000610de86060830186610d04565b6001600160a01b039490941660208301525060400152919050565b600181811c90821680610e1757607f821691505b60208210811415610e3857634e487b7160e01b600052602260045260246000fd5b50919050565b6000600019821415610e6057634e487b7160e01b600052601160045260246000fd5b5060010190565b634e487b7160e01b600052600160045260246000fd5b634e487b7160e01b600052604160045260246000fd5b6001600160a01b0381168114610ea857600080fd5b5056fea264697066735822122048a8b888b0e7c585620e23f26893aff00be7d49ca8cf514e049f00ed5f4f064164736f6c63430008060033a2646970667358221220a96d88d7fdcacdafb570c5a9432a097f6586ca577738bbcb68800f0ad15f2e9c64736f6c63430008060033608060405234801561001057600080fd5b506040516106c03803806106c083398101604081905261002f91610054565b600280546001600160a01b0319166001600160a01b0392909216919091179055610084565b60006020828403121561006657600080fd5b81516001600160a01b038116811461007d57600080fd5b9392505050565b61062d806100936000396000f3fe608060405234801561001057600080fd5b50600436106100885760003560e01c80639777f31e1161005b5780639777f31e1461010e578063a6f9dae114610121578063a87d942c14610134578063bc902ad21461014557600080fd5b806329092d0e1461008d57806367e4ac2c146100a25780638da5cb5b146100c057806396210c51146100eb575b600080fd5b6100a061009b3660046104ff565b610158565b005b6100aa610197565b6040516100b79190610548565b60405180910390f35b6002546100d3906001600160a01b031681565b6040516001600160a01b0390911681526020016100b7565b6100fe6100f93660046104ff565b6101f9565b60405190151581526020016100b7565b6100d361011c36600461052f565b610258565b6100a061012f3660046104ff565b610296565b6001546040519081526020016100b7565b6100a06101533660046104ff565b6102e2565b6002546001600160a01b0316331461018b5760405162461bcd60e51b815260040161018290610595565b60405180910390fd5b61019481610315565b50565b606060018054806020026020016040519081016040528092919081815260200182805480156101ef57602002820191906000526020600020905b81546001600160a01b031681526001909101906020018083116101d1575b5050505050905090565b60015460009061020b57506000919050565b6001600160a01b038216600081815260208190526040902054600180549192918390811061023b5761023b6105e1565b6000918252602090912001546001600160a01b0316149392505050565b6000600154821061026857600080fd5b6001828154811061027b5761027b6105e1565b6000918252602090912001546001600160a01b031692915050565b6002546001600160a01b031633146102c05760405162461bcd60e51b815260040161018290610595565b600280546001600160a01b0319166001600160a01b0392909216919091179055565b6002546001600160a01b0316331461030c5760405162461bcd60e51b815260040161018290610595565b6101948161043a565b61031e816101f9565b61035f5760405162461bcd60e51b81526020600482015260126024820152711059191c995cdcc81b9bdd081cdd1bdc995960721b6044820152606401610182565b600180546001600160a01b038316600090815260208190526040812054919261038881856105bc565b81548110610398576103986105e1565b600091825260209091200154600180546001600160a01b0390921692508291849081106103c7576103c76105e1565b600091825260208083209190910180546001600160a01b0319166001600160a01b0394851617905591831681529081905260409020829055600161040b81856105bc565b8154811061041b5761041b6105e1565b600091825260209091200180546001600160a01b031916905550505050565b610443816101f9565b156104895760405162461bcd60e51b81526020600482015260166024820152751059191c995cdcc8185b1c9958591e481cdd1bdc995960521b6044820152606401610182565b60018054808201825560008290527fb10e2d527612073b26eecdfd717e6a320cf44b4afac2b0732d9fcbe2b7fa0cf60180546001600160a01b0319166001600160a01b0384161790558054906104df90826105bc565b6001600160a01b0390921660009081526020819052604090209190915550565b60006020828403121561051157600080fd5b81356001600160a01b038116811461052857600080fd5b9392505050565b60006020828403121561054157600080fd5b5035919050565b6020808252825182820181905260009190848201906040850190845b818110156105895783516001600160a01b031683529284019291840191600101610564565b50909695505050505050565b6020808252600d908201526c2737ba103a34329037bbb732b960991b604082015260600190565b6000828210156105dc57634e487b7160e01b600052601160045260246000fd5b500390565b634e487b7160e01b600052603260045260246000fdfea2646970667358221220610ab98d44ad4c229ebb4ef421980bc75ad037467ba2c6958db424ffe10b5bd264736f6c6343000806003360806040523480156200001157600080fd5b5060405162000a6b38038062000a6b833981016040819052620000349162000134565b81516200004990600190602085019062000071565b50600080546001600160a01b0319166001600160a01b03929092169190911790555062000278565b8280546200007f9062000225565b90600052602060002090601f016020900481019282620000a35760008555620000ee565b82601f10620000be57805160ff1916838001178555620000ee565b82800160010185558215620000ee579182015b82811115620000ee578251825591602001919060010190620000d1565b50620000fc92915062000100565b5090565b5b80821115620000fc576000815560010162000101565b80516001600160a01b03811681146200012f57600080fd5b919050565b600080604083850312156200014857600080fd5b82516001600160401b03808211156200016057600080fd5b818501915085601f8301126200017557600080fd5b8151818111156200018a576200018a62000262565b604051601f8201601f19908116603f01168101908382118183101715620001b557620001b562000262565b81604052828152602093508884848701011115620001d257600080fd5b600091505b82821015620001f65784820184015181830185015290830190620001d7565b82821115620002085760008484830101525b95506200021a91505085820162000117565b925050509250929050565b600181811c908216806200023a57607f821691505b602082108114156200025c57634e487b7160e01b600052602260045260246000fd5b50919050565b634e487b7160e01b600052604160045260246000fd5b6107e380620002886000396000f3fe608060405234801561001057600080fd5b50600436106100b45760003560e01c80633eaaf86b116100715780633eaaf86b1461015f5780636ebcf6071461016857806370a0823114610188578063a9059cbb146101b1578063dd336c12146101c4578063dd62ed3e146101ef57600080fd5b806306fdde03146100b9578063095ea7b3146100d75780630f6798a5146100fa57806318160ddd1461010f57806323b872dd14610121578063349dc32914610134575b600080fd5b6100c1610228565b6040516100ce91906106d8565b60405180910390f35b6100ea6100e53660046106ae565b6102b6565b60405190151581526020016100ce565b61010d6101083660046106ae565b610322565b005b6002545b6040519081526020016100ce565b6100ea61012f366004610672565b6103ab565b600054610147906001600160a01b031681565b6040516001600160a01b0390911681526020016100ce565b61011360025481565b61011361017636600461061d565b60036020526000908152604090205481565b61011361019636600461061d565b6001600160a01b031660009081526003602052604090205490565b6100ea6101bf3660046106ae565b610535565b6101136101d236600461063f565b600460209081526000928352604080842090915290825290205481565b6101136101fd36600461063f565b6001600160a01b03918216600090815260046020908152604080832093909416825291909152205490565b600180546102359061075c565b80601f01602080910402602001604051908101604052809291908181526020018280546102619061075c565b80156102ae5780601f10610283576101008083540402835291602001916102ae565b820191906000526020600020905b81548152906001019060200180831161029157829003601f168201915b505050505081565b3360008181526004602090815260408083206001600160a01b038716808552925280832085905551919290917f8c5be1e5ebec7d5bd14f71427d1e84f3dd0314c0f7b2291e5b200ac8c7c3b925906103119086815260200190565b60405180910390a350600192915050565b6000546001600160a01b0316331461033957600080fd5b6001600160a01b0382166000908152600360205260408120805483929061036190849061072d565b90915550506040518181526001600160a01b038316906000907fddf252ad1be2c89b69c2b068fc378daa952ba7f163c4a11628f55a4df523b3ef9060200160405180910390a35050565b6001600160a01b0383166000908152600360205260408120548211156103d057600080fd5b6001600160a01b038416600090815260046020908152604080832033845290915290205482111561040057600080fd5b336001600160a01b0385161461041557600080fd5b6001600160a01b0384166000908152600360205260408120805484929061043d908490610745565b91829055506001600160a01b03808716600090815260036020526040808220939093559086168152908120805485935090919061047b90849061072d565b91829055506001600160a01b0380861660009081526003602090815260408083209490945591881681526004825282812033825290915290812080548593509091906104c8908490610745565b91829055506001600160a01b03868116600081815260046020908152604080832033845282529182902094909455518681529187169350917fddf252ad1be2c89b69c2b068fc378daa952ba7f163c4a11628f55a4df523b3ef910160405180910390a35060019392505050565b3360009081526003602052604081205482111561055157600080fd5b3360009081526003602052604081208054849290610570908490610745565b918290555033600090815260036020526040808220929092556001600160a01b038616815290812080548593509091906105ab90849061072d565b91829055506001600160a01b038516600081815260036020908152604091829020939093555185815290925033917fddf252ad1be2c89b69c2b068fc378daa952ba7f163c4a11628f55a4df523b3ef9101610311565b80356001600160a01b038116811461061857600080fd5b919050565b60006020828403121561062f57600080fd5b61063882610601565b9392505050565b6000806040838503121561065257600080fd5b61065b83610601565b915061066960208401610601565b90509250929050565b60008060006060848603121561068757600080fd5b61069084610601565b925061069e60208501610601565b9150604084013590509250925092565b600080604083850312156106c157600080fd5b6106ca83610601565b946020939093013593505050565b600060208083528351808285015260005b81811015610705578581018301518582016040015282016106e9565b81811115610717576000604083870101525b50601f01601f1916929092016040019392505050565b6000821982111561074057610740610797565b500190565b60008282101561075757610757610797565b500390565b600181811c9082168061077057607f821691505b6020821081141561079157634e487b7160e01b600052602260045260246000fd5b50919050565b634e487b7160e01b600052601160045260246000fdfea2646970667358221220f14f7320b37da4a65c4f34b3b6ad2d4c6d0ce5c45c140d3f1dca887bb0beb10364736f6c63430008060033",
  "immutableReferences": {},
  "source": "// SPDX-License-Identifier: SimPL-2.0\r\npragma solidity >=0.8.0;\r\n\r\nimport \"./Interfaces.sol\";\r\nimport \"./User.sol\";\r\nimport \"./Main.sol\";\r\nimport \"./AssetStorage.sol\";\r\nimport \"./Token/ERC20.sol\";\r\nimport \"./Question.sol\";\r\n\r\ncontract Item is Permissioned {\r\n\r\n    // Data\r\n    string                  public  name;                // Item nickname\r\n    address                 public  MS;                  // The MainSystem the Item belongs to\r\n    ERC20                   public  tokenContract;       // Item token contract address\r\n    uint256                 public  value;  \r\n    OwnableStoragePointer   private questions;\r\n    // Events\r\n    event SuccessfulPayment(Item _item, User _user, uint _amount, uint256 _numberOfToken);\r\n    event NewQuestion(Question _question);\r\n   \r\n    constructor (string memory _name,             \r\n                 address _owner,            \r\n                 address _ms,\r\n                 string memory _nameToken,\r\n                 uint256 _value\r\n                 )               \r\n                 Permissioned(_owner) {\r\n\r\n        require(_value > 0);\r\n        MS = _ms;\r\n        name = _name;\r\n        questions = new OwnableStoragePointer(address(this));\r\n        tokenContract = new ERC20(_nameToken, address(this));\r\n        value = _value;\r\n    }\r\n\r\n    // function destroy() external isOwner {\r\n    //     // We don't assume User contracts to store ether\r\n    //     selfdestruct(payable(address(0x0))); // cast 0x0 to address payable\r\n    // }\r\n\r\n    // function grantPermission(address _to) public override isOwner {\r\n\r\n    //     // Check if the User and this Item belong to the same RSF\r\n    //     User u = User(_to);\r\n    //         // Require sender is User of RSF\r\n    //     require(u.iAmRegisteredUser());\r\n    //         // Require User's RSF == my RSF\r\n    //     require(u.MS() == MS);\r\n    //     require(u.owner() != owner);\r\n\r\n    //     // Call parent\r\n    //     super.grantPermission(_to);\r\n    // }\r\n\r\n    function createQuestion(address _ms, string memory _ipfs) external returns(address) {\r\n        require(_ms == MS);\r\n        Item _item = Item(address(this));\r\n        MainSystem ms = MainSystem(MS);\r\n        require(ms.isIn(User(msg.sender)));\r\n        Question question = new Question(MS, _item, _ipfs);\r\n        questions.insert(address(question));\r\n        issueToken(address(question), 1000);\r\n        \r\n        emit NewQuestion(question);\r\n\r\n        return address(question);\r\n    }\r\n\r\n\r\n    function successfulPayment(uint _amount, uint256 _totalTokenAmount) external payable{\r\n        User _user = User(msg.sender);\r\n        MainSystem ms = MainSystem(MS);\r\n        require(ms.isIn(_user) == true);\r\n        require(_amount + _totalTokenAmount == value, \"Sum of amount and tokens does not match \");\r\n        require(msg.value == _amount && _amount > 0);\r\n              \r\n        if (_amount > 0){\r\n            address payable ownerItem = payable(owner);\r\n            ownerItem.transfer(_amount);\r\n        }\r\n        if (_totalTokenAmount > 0) {\r\n            tokenContract.transferFrom(address(_user), address(this), _totalTokenAmount);\r\n        }\r\n        \r\n        grantPermission(address(_user));   \r\n        emit SuccessfulPayment(this, _user, _amount, _totalTokenAmount);\r\n    }\r\n    \r\n    \r\n\r\n    function getActualPaymentValue() external view returns(uint256){\r\n        uint _balance = tokenContract.balanceOf(msg.sender);\r\n        if (_balance >= value) {\r\n            return 0;\r\n        } else {\r\n            return value - _balance;\r\n        } \r\n    }\r\n\r\n    function getTokenOwned() external view returns(uint256){\r\n\r\n        return tokenContract.balanceOf(msg.sender);\r\n    }\r\n\r\n    function issueToken(address _to, uint256 _numberOfToken) private {\r\n\r\n        tokenContract.Mint(_to, _numberOfToken);\r\n    }\r\n\r\n    fallback() external {}\r\n\r\n\r\n}\r\n",
  "sourcePath": "/home/lapulasman//custumServe/contracts/Item.sol",
  "compiler": {
    "name": "solc",
    "version": "0.8.6+commit.11564f7e.Emscripten.clang"
  },
  "schemaVersion": "3.3.4",
  "updatedAt": "2021-09-06T12:19:39.017Z",
  "devdoc": {
    "kind": "dev",
    "methods": {
      "changeOwner(address)": {
        "params": {
          "_to": "The new owner of this contract "
        }
      },
      "revokePermission(address)": {
        "details": "Only the owner of this contract or the receiver itself can revoke the permission to the receiver",
        "params": {
          "_to": "The address to revoke permission"
        }
      }
    },
    "version": 1
  },
  "userdoc": {
    "kind": "user",
    "methods": {
      "changeOwner(address)": {
        "notice": "This function provides the possibility to change the owner"
      },
      "revokePermission(address)": {
        "notice": "Revoke the permission to access to this contract to a certain address (contract or EOA)"
      }
    },
    "version": 1
  }
}