{
  "contractName": "MainSystem",
  "abi": [
    {
      "inputs": [],
      "stateMutability": "nonpayable",
      "type": "constructor"
    },
    {
      "anonymous": false,
      "inputs": [
        {
          "indexed": false,
          "internalType": "contract User",
          "name": "_userContract",
          "type": "address"
        }
      ],
      "name": "UserCreated",
      "type": "event"
    },
    {
      "inputs": [
        {
          "internalType": "address",
          "name": "_to",
          "type": "address"
        }
      ],
      "name": "changeOwner",
      "outputs": [],
      "stateMutability": "nonpayable",
      "type": "function"
    },
    {
      "inputs": [],
      "name": "functionRegistry",
      "outputs": [
        {
          "internalType": "contract FunctionRegistry",
          "name": "",
          "type": "address"
        }
      ],
      "stateMutability": "view",
      "type": "function"
    },
    {
      "inputs": [],
      "name": "owner",
      "outputs": [
        {
          "internalType": "address",
          "name": "",
          "type": "address"
        }
      ],
      "stateMutability": "view",
      "type": "function"
    },
    {
      "inputs": [
        {
          "internalType": "string",
          "name": "_name",
          "type": "string"
        }
      ],
      "name": "createUser",
      "outputs": [],
      "stateMutability": "nonpayable",
      "type": "function"
    },
    {
      "inputs": [],
      "name": "getMyUserContract",
      "outputs": [
        {
          "internalType": "contract User",
          "name": "",
          "type": "address"
        }
      ],
      "stateMutability": "view",
      "type": "function"
    },
    {
      "inputs": [
        {
          "internalType": "contract User",
          "name": "_user",
          "type": "address"
        }
      ],
      "name": "isIn",
      "outputs": [
        {
          "internalType": "bool",
          "name": "",
          "type": "bool"
        }
      ],
      "stateMutability": "view",
      "type": "function"
    }
  ],
  "bytecode": "0x608060405234801561001057600080fd5b50600080546001600160a01b03191633179055604051309061003190610083565b6001600160a01b039091168152602001604051809103906000f08015801561005d573d6000803e3d6000fd5b50600280546001600160a01b0319166001600160a01b0392909216919091179055610090565b6106c080615f4d83390190565b615eae8061009f6000396000f3fe608060405234801561001057600080fd5b50600436106100625760003560e01c806310e4590b14610067578063507ffba5146100975780638da5cb5b146100ac57806396210c51146100bf578063a6f9dae1146100e2578063bd09f028146100f5575b600080fd5b60015461007a906001600160a01b031681565b6040516001600160a01b0390911681526020015b60405180910390f35b6100aa6100a53660046103d3565b610113565b005b60005461007a906001600160a01b031681565b6100d26100cd36600461038d565b61028f565b604051901515815260200161008e565b6100aa6100f036600461038d565b610313565b336000908152600360205260409020546001600160a01b031661007a565b336000908152600360205260409020546001600160a01b0316156101915760405162461bcd60e51b815260206004820152602a60248201527f5468697320616464726573732068617320616c726561647920612055736572206044820152691c9959da5cdd195c995960b21b60648201526084015b60405180910390fd5b600081336040516101a19061037f565b6101ac929190610484565b604051809103906000f0801580156101c8573d6000803e3d6000fd5b50336000908152600360205260409081902080546001600160a01b0319166001600160a01b038481169182179092556002549251635e48156960e11b81526004810191909152929350169063bc902ad290602401600060405180830381600087803b15801561023657600080fd5b505af115801561024a573d6000803e3d6000fd5b50506040516001600160a01b03841681527f0b0376a109cbb578b709f85f6a7befcdac3ac1ab251c99ede87f30c9572ac4d39250602001905060405180910390a15050565b6002546040516396210c5160e01b81526001600160a01b03838116600483015260009216906396210c519060240160206040518083038186803b1580156102d557600080fd5b505afa1580156102e9573d6000803e3d6000fd5b505050506040513d601f19601f8201168201806040525081019061030d91906103b1565b92915050565b6000546001600160a01b0316331461035d5760405162461bcd60e51b815260206004820152600d60248201526c2737ba103a34329037bbb732b960991b6044820152606401610188565b600080546001600160a01b0319166001600160a01b0392909216919091179055565b615960806200051983390190565b60006020828403121561039f57600080fd5b81356103aa81610500565b9392505050565b6000602082840312156103c357600080fd5b815180151581146103aa57600080fd5b6000602082840312156103e557600080fd5b813567ffffffffffffffff808211156103fd57600080fd5b818401915084601f83011261041157600080fd5b813581811115610423576104236104ea565b604051601f8201601f19908116603f0116810190838211818310171561044b5761044b6104ea565b8160405282815287602084870101111561046457600080fd5b826020860160208301376000928101602001929092525095945050505050565b604081526000835180604084015260005b818110156104b25760208187018101516060868401015201610495565b818111156104c4576000606083860101525b506001600160a01b0393909316602083015250601f91909101601f191601606001919050565b634e487b7160e01b600052604160045260246000fd5b6001600160a01b038116811461051557600080fd5b5056fe60806040523480156200001157600080fd5b5060405162005960380380620059608339810160408190526200003491620001aa565b600080546001600160a01b0383166001600160a01b031991821617909155600280549091163317905560405130906200006d90620000d9565b6001600160a01b039091168152602001604051809103906000f0801580156200009a573d6000803e3d6000fd5b50600480546001600160a01b0319166001600160a01b03929092169190911790558151620000d0906001906020850190620000e7565b505050620002ee565b6106c080620052a083390190565b828054620000f5906200029b565b90600052602060002090601f01602090048101928262000119576000855562000164565b82601f106200013457805160ff191683800117855562000164565b8280016001018555821562000164579182015b828111156200016457825182559160200191906001019062000147565b506200017292915062000176565b5090565b5b8082111562000172576000815560010162000177565b80516001600160a01b0381168114620001a557600080fd5b919050565b60008060408385031215620001be57600080fd5b82516001600160401b0380821115620001d657600080fd5b818501915085601f830112620001eb57600080fd5b815181811115620002005762000200620002d8565b604051601f8201601f19908116603f011681019083821181831017156200022b576200022b620002d8565b816040528281526020935088848487010111156200024857600080fd5b600091505b828210156200026c57848201840151818301850152908301906200024d565b828211156200027e5760008484830101525b9550620002909150508582016200018d565b925050509250929050565b600181811c90821680620002b057607f821691505b60208210811415620002d257634e487b7160e01b600052602260045260246000fd5b50919050565b634e487b7160e01b600052604160045260246000fd5b614fa280620002fe6000396000f3fe608060405260043610620001075760003560e01c80638da5cb5b1162000095578063c4bebf9f1162000060578063c4bebf9f146200031d578063c52164c61462000342578063cb0210a01462000369578063e7be830c146200038157600080fd5b80638da5cb5b146200027b57806396210c51146200029d5780639a88763214620002d3578063a6f9dae114620002f857600080fd5b80633ccfd60b11620000d65780633ccfd60b14620001d25780635d30e84d14620001ec5780635fb6161c146200023f5780637eef456c146200026457600080fd5b806306fdde03146200010c57806317599cc5146200013c57806331b1b9781462000172578063346fa5ed1462000197575b600080fd5b3480156200011957600080fd5b5062000124620003a6565b60405162000133919062001771565b60405180910390f35b3480156200014957600080fd5b50620001616200015b3660046200168d565b6200043c565b60405162000133939291906200173f565b3480156200017f57600080fd5b5062000161620001913660046200168d565b6200050e565b348015620001a457600080fd5b50600254620001b9906001600160a01b031681565b6040516001600160a01b03909116815260200162000133565b348015620001df57600080fd5b50620001ea6200051f565b005b348015620001f957600080fd5b50620002116200020b3660046200168d565b62000585565b604080516001600160a01b03909516855260208501939093529183015260ff16606082015260800162000133565b3480156200024c57600080fd5b50620001ea6200025e36600462001619565b620005cd565b620001ea620002753660046200150c565b620006fa565b3480156200028857600080fd5b50600054620001b9906001600160a01b031681565b348015620002aa57600080fd5b50620002c2620002bc3660046200150c565b62000c36565b604051901515815260200162000133565b348015620002e057600080fd5b50620001ea620002f2366004620015cd565b62000cc3565b3480156200030557600080fd5b50620001ea620003173660046200150c565b62000f16565b3480156200032a57600080fd5b50620001ea6200033c36600462001577565b62000f65565b3480156200034f57600080fd5b506200035a60035481565b60405190815260200162000133565b3480156200037657600080fd5b50620001ea62001144565b3480156200038e57600080fd5b50620001ea620003a036600462001577565b620011f5565b60018054620003b590620018f0565b80601f0160208091040260200160405190810160405280929190818152602001828054620003e390620018f0565b8015620004345780601f10620004085761010080835404028352916020019162000434565b820191906000526020600020905b8154815290600101906020018083116200041657829003601f168201915b505050505081565b600681815481106200044d57600080fd5b60009182526020909120600390910201805460018201546002830180546001600160a01b0390931694509092916200048590620018f0565b80601f0160208091040260200160405190810160405280929190818152602001828054620004b390620018f0565b8015620005045780601f10620004d85761010080835404028352916020019162000504565b820191906000526020600020905b815481529060010190602001808311620004e657829003601f168201915b5050505050905083565b600581815481106200044d57600080fd5b6000546001600160a01b03163314620005555760405162461bcd60e51b81526004016200054c90620017d9565b60405180910390fd5b60405133904780156108fc02916000818181858888f1935050505015801562000582573d6000803e3d6000fd5b50565b600781815481106200059657600080fd5b600091825260209091206004909102018054600182015460028301546003909301546001600160a01b039092169350919060ff1684565b6000546001600160a01b03163314620005fa5760405162461bcd60e51b81526004016200054c90620017d9565b6000805460025460405186926001600160a01b03908116921690869086906200062390620013c3565b6200063395949392919062001786565b604051809103906000f08015801562000650573d6000803e3d6000fd5b5060048054604051635e48156960e11b81526001600160a01b0380851693820193909352929350169063bc902ad290602401600060405180830381600087803b1580156200069d57600080fd5b505af1158015620006b2573d6000803e3d6000fd5b50506040516001600160a01b03841681527fc84c1949c25c3720439bdbb249aef7fe95085fe4af1820022b566cd94d671848925060200190505b60405180910390a150505050565b6000546001600160a01b03163314620007275760405162461bcd60e51b81526004016200054c90620017d9565b3480620007815760405162461bcd60e51b815260206004820152602160248201527f54686520616d6f756e74206d7573742062652067726561746572207468656e206044820152600360fc1b60648201526084016200054c565b6000826001600160a01b03166343f575af6040518163ffffffff1660e01b815260040160206040518083038186803b158015620007bd57600080fd5b505afa158015620007d2573d6000803e3d6000fd5b505050506040513d601f19601f82011682018060405250810190620007f89190620016a7565b90506000836001600160a01b031663af424d3a6040518163ffffffff1660e01b815260040160206040518083038186803b1580156200083657600080fd5b505afa1580156200084b573d6000803e3d6000fd5b505050506040513d601f19601f82011682018060405250810190620008719190620016a7565b90508015801590620008835750808310155b15620009f257836001600160a01b03166355a373d66040518163ffffffff1660e01b815260040160206040518083038186803b158015620008c357600080fd5b505afa158015620008d8573d6000803e3d6000fd5b505050506040513d601f19601f82011682018060405250810190620008fe919062001533565b60405163095ea7b360e01b81526001600160a01b03868116600483015260248201859052919091169063095ea7b390604401602060405180830381600087803b1580156200094b57600080fd5b505af115801562000960573d6000803e3d6000fd5b505050506040513d601f19601f8201168201806040525081019062000986919062001553565b506040516301cc145760e31b815260048101849052602481018390526001600160a01b03851690630e60a2b89083906044016000604051808303818588803b158015620009d257600080fd5b505af1158015620009e7573d6000803e3d6000fd5b505050505062000be8565b8062000be857836001600160a01b0316633fa4f2456040518163ffffffff1660e01b815260040160206040518083038186803b15801562000a3257600080fd5b505afa15801562000a47573d6000803e3d6000fd5b505050506040513d601f19601f8201168201806040525081019062000a6d9190620016a7565b9150836001600160a01b03166355a373d66040518163ffffffff1660e01b815260040160206040518083038186803b15801562000aa957600080fd5b505afa15801562000abe573d6000803e3d6000fd5b505050506040513d601f19601f8201168201806040525081019062000ae4919062001533565b6001600160a01b031663095ea7b38562000aff8686620018d6565b6040516001600160e01b031960e085901b1681526001600160a01b0390921660048301526024820152604401602060405180830381600087803b15801562000b4657600080fd5b505af115801562000b5b573d6000803e3d6000fd5b505050506040513d601f19601f8201168201806040525081019062000b81919062001553565b506040516301cc145760e31b815260006004820152602481018390526001600160a01b03851690630e60a2b89085906044016000604051808303818588803b15801562000bcd57600080fd5b505af115801562000be2573d6000803e3d6000fd5b50505050505b604080513081526001600160a01b0386166020820152908101849052606081018390527fcddb72793877e635d832b0c374a64b2611fcd49b1582997fda0774766fc0e20690608001620006ec565b600480546040516396210c5160e01b81526001600160a01b0384811693820193909352600092909116906396210c519060240160206040518083038186803b15801562000c8257600080fd5b505afa15801562000c97573d6000803e3d6000fd5b505050506040513d601f19601f8201168201806040525081019062000cbd919062001553565b92915050565b6000546001600160a01b0316331462000cf05760405162461bcd60e51b81526004016200054c90620017d9565b60008160ff1611801562000d085750600a8160ff1611155b62000d1257600080fd5b6002546040516313b93d6360e21b8152600481018490526001600160a01b03918216602482015260ff8316604482015290841690634ee4f58c90606401600060405180830381600087803b15801562000d6a57600080fd5b505af115801562000d7f573d6000803e3d6000fd5b5050604080516080810182526001600160a01b038781168252602082018781524293830193845260ff878116606085019081526007805460018082018355600083905296517fa66cc928b5edb82af9bd49922954155ab7b0942694bea4ce44661d9a8736c688600490920291820180546001600160a01b031916919097161790955592517fa66cc928b5edb82af9bd49922954155ab7b0942694bea4ce44661d9a8736c68985015594517fa66cc928b5edb82af9bd49922954155ab7b0942694bea4ce44661d9a8736c68a84015593517fa66cc928b5edb82af9bd49922954155ab7b0942694bea4ce44661d9a8736c68b909201805460ff19169290941691909117909255815493507fb87c9aa2c27a53e4ea848314fe17354b79a5be65066508122476ae216bc7d4b4925062000eb79084620018d6565b8154811062000eca5762000eca62001961565b9060005260206000209060040201604051620006ec919081546001600160a01b03168152600182015460208201526002820154604082015260039091015460ff16606082015260800190565b6000546001600160a01b0316331462000f435760405162461bcd60e51b81526004016200054c90620017d9565b600080546001600160a01b0319166001600160a01b0392909216919091179055565b6000546001600160a01b0316331462000f925760405162461bcd60e51b81526004016200054c90620017d9565b60025460405163c4bebf9f60e01b81526001600160a01b038481169263c4bebf9f9262000fc89290911690859060040162001711565b600060405180830381600087803b15801562000fe357600080fd5b505af115801562000ff8573d6000803e3d6000fd5b5050604080516060810182526001600160a01b0386811682524260208084019182529383018781526006805460018101825560009190915284517ff652222313e28459528d920b65115c16c04f3efc82aaedc97be59f3f377c0d3f600390920291820180546001600160a01b0319169190951617845591517ff652222313e28459528d920b65115c16c04f3efc82aaedc97be59f3f377c0d40830155518051939650919450620010d0937ff652222313e28459528d920b65115c16c04f3efc82aaedc97be59f3f377c0d4190910192910190620013d1565b50506006805491507f48a88f1eabc323c28c5ca09686a06d843cce414a2b3291f51488889b619c40b99062001107600184620018d6565b815481106200111a576200111a62001961565b906000526020600020906003020160405162001137919062001800565b60405180910390a1505050565b6002546040805163346fa5ed60e01b8152905133926001600160a01b031691839163346fa5ed91600480820192602092909190829003018186803b1580156200118c57600080fd5b505afa158015620011a1573d6000803e3d6000fd5b505050506040513d601f19601f82011682018060405250810190620011c7919062001533565b6001600160a01b031614620011db57600080fd5b60038054906000620011ed836200192d565b919050555050565b6000546001600160a01b03163314620012225760405162461bcd60e51b81526004016200054c90620017d9565b6002546040516339efa0c360e21b81526000916001600160a01b038086169263e7be830c9262001259921690869060040162001711565b602060405180830381600087803b1580156200127457600080fd5b505af115801562001289573d6000803e3d6000fd5b505050506040513d601f19601f82011682018060405250810190620012af919062001533565b604080516060810182526001600160a01b0386811682524260208084019182529383018781526005805460018101825560009190915284517f036b6384b5eca791c62761152d0c79bb0604c104a5fb6f4eb0703f3154bb3db0600390920291820180546001600160a01b0319169190951617845591517f036b6384b5eca791c62761152d0c79bb0604c104a5fb6f4eb0703f3154bb3db18301555180519596509294919362001386937f036b6384b5eca791c62761152d0c79bb0604c104a5fb6f4eb0703f3154bb3db290920192910190620013d1565b50506040516001600160a01b03831681527f91c8496b0cdf55acd9f0f9ebdca50596d717bbf8fe7d29be340caa9703ba0fa0915060200162001137565b6135c980620019a483390190565b828054620013df90620018f0565b90600052602060002090601f0160209004810192826200140357600085556200144e565b82601f106200141e57805160ff19168380011785556200144e565b828001600101855582156200144e579182015b828111156200144e57825182559160200191906001019062001431565b506200145c92915062001460565b5090565b5b808211156200145c576000815560010162001461565b600082601f8301126200148957600080fd5b813567ffffffffffffffff80821115620014a757620014a762001977565b604051601f8301601f19908116603f01168101908282118183101715620014d257620014d262001977565b81604052838152866020858801011115620014ec57600080fd5b836020870160208301376000602085830101528094505050505092915050565b6000602082840312156200151f57600080fd5b81356200152c816200198d565b9392505050565b6000602082840312156200154657600080fd5b81516200152c816200198d565b6000602082840312156200156657600080fd5b815180151581146200152c57600080fd5b600080604083850312156200158b57600080fd5b823562001598816200198d565b9150602083013567ffffffffffffffff811115620015b557600080fd5b620015c38582860162001477565b9150509250929050565b600080600060608486031215620015e357600080fd5b8335620015f0816200198d565b925060208401359150604084013560ff811681146200160e57600080fd5b809150509250925092565b6000806000606084860312156200162f57600080fd5b833567ffffffffffffffff808211156200164857600080fd5b620016568783880162001477565b945060208601359150808211156200166d57600080fd5b506200167c8682870162001477565b925050604084013590509250925092565b600060208284031215620016a057600080fd5b5035919050565b600060208284031215620016ba57600080fd5b5051919050565b6000815180845260005b81811015620016e957602081850181015186830182015201620016cb565b81811115620016fc576000602083870101525b50601f01601f19169290920160200192915050565b6001600160a01b03831681526040602082018190526000906200173790830184620016c1565b949350505050565b60018060a01b0384168152826020820152606060408201526000620017686060830184620016c1565b95945050505050565b6020815260006200152c6020830184620016c1565b60a0815260006200179b60a0830188620016c1565b6001600160a01b038781166020850152861660408401528281036060840152620017c68186620016c1565b9150508260808301529695505050505050565b6020808252600d908201526c2737ba103a34329037bbb732b960991b604082015260600190565b602080825282546001600160a01b0316828201526001838101546040840152606080840152600284018054600093929190849080841c818516806200184657607f821691505b8682108114156200186557634e487b7160e01b84526022600452602484fd5b6080890182905260a089018180156200188757600181146200189957620018c6565b60ff19851682528882019550620018c6565b60008781526020902060005b85811015620018c057815484820152908901908a01620018a5565b83019650505b50939a9950505050505050505050565b600082821015620018eb57620018eb6200194b565b500390565b600181811c908216806200190557607f821691505b602082108114156200192757634e487b7160e01b600052602260045260246000fd5b50919050565b60006000198214156200194457620019446200194b565b5060010190565b634e487b7160e01b600052601160045260246000fd5b634e487b7160e01b600052603260045260246000fd5b634e487b7160e01b600052604160045260246000fd5b6001600160a01b03811681146200058257600080fdfe60806040523480156200001157600080fd5b50604051620035c9380380620035c98339810160408190526200003491620002c7565b600080546001600160a01b0319166001600160a01b038616179055806200005a57600080fd5b600380546001600160a01b0319166001600160a01b03851617905584516200008a90600290602088019062000157565b50306040516200009a90620001e6565b6001600160a01b039091168152602001604051809103906000f080158015620000c7573d6000803e3d6000fd5b50600660006101000a8154816001600160a01b0302191690836001600160a01b031602179055508130604051620000fe90620001f4565b6200010b92919062000360565b604051809103906000f08015801562000128573d6000803e3d6000fd5b50600480546001600160a01b0319166001600160a01b0392909216919091179055600555506200042c92505050565b8280546200016590620003d9565b90600052602060002090601f016020900481019282620001895760008555620001d4565b82601f10620001a457805160ff1916838001178555620001d4565b82800160010185558215620001d4579182015b82811115620001d4578251825591602001919060010190620001b7565b50620001e292915062000202565b5090565b6106c0806200249e83390190565b610a6b8062002b5e83390190565b5b80821115620001e2576000815560010162000203565b80516001600160a01b03811681146200023157600080fd5b919050565b600082601f8301126200024857600080fd5b81516001600160401b038082111562000265576200026562000416565b604051601f8301601f19908116603f0116810190828211818310171562000290576200029062000416565b81604052838152866020858801011115620002aa57600080fd5b620002bd846020830160208901620003a6565b9695505050505050565b600080600080600060a08688031215620002e057600080fd5b85516001600160401b0380821115620002f857600080fd5b6200030689838a0162000236565b9650620003166020890162000219565b9550620003266040890162000219565b945060608801519150808211156200033d57600080fd5b506200034c8882890162000236565b925050608086015190509295509295909350565b604081526000835180604084015262000381816060850160208801620003a6565b6001600160a01b0393909316602083015250601f91909101601f191601606001919050565b60005b83811015620003c3578181015183820152602001620003a9565b83811115620003d3576000848401525b50505050565b600181811c90821680620003ee57607f821691505b602082108114156200041057634e487b7160e01b600052602260045260246000fd5b50919050565b634e487b7160e01b600052604160045260246000fd5b612062806200043c6000396000f3fe608060405260043610620000d45760003560e01c80637c3102d8116200008b578063a6f9dae11162000061578063a6f9dae11462000279578063af424d3a146200029e578063e7be830c14620002b6578063f214597114620002db57620000d4565b80637c3102d814620001c95780638da5cb5b1462000232578063a3bf5b9a146200025457620000d4565b806306fdde0314620000e45780630e60a2b81462000114578063346fa5ed146200012d5780633fa4f245146200016857806343f575af146200018f57806355a373d614620001a7575b348015620000e157600080fd5b50005b348015620000f157600080fd5b50620000fc62000331565b6040516200010b919062000dd3565b60405180910390f35b6200012b6200012536600462000d29565b620003c7565b005b3480156200013a57600080fd5b506003546200014f906001600160a01b031681565b6040516001600160a01b0390911681526020016200010b565b3480156200017557600080fd5b506200018060055481565b6040519081526020016200010b565b3480156200019c57600080fd5b506200018062000628565b348015620001b457600080fd5b506004546200014f906001600160a01b031681565b348015620001d657600080fd5b5062000221620001e836600462000bf8565b6001600160a01b03166000908152600160208181526040928390208351808501909452805460ff16151580855292015492019190915290565b60405190151581526020016200010b565b3480156200023f57600080fd5b506000546200014f906001600160a01b031681565b3480156200026157600080fd5b506200012b6200027336600462000bf8565b620006b2565b3480156200028657600080fd5b506200012b6200029836600462000bf8565b620007ae565b348015620002ab57600080fd5b50620001806200081c565b348015620002c357600080fd5b506200014f620002d536600462000c1d565b620008cb565b348015620002e857600080fd5b5062000319620002fa36600462000bf8565b6001602081905260009182526040909120805491015460ff9091169082565b6040805192151583526020830191909152016200010b565b60028054620003409062000e1d565b80601f01602080910402602001604051908101604052809291908181526020018280546200036e9062000e1d565b8015620003bf5780601f106200039357610100808354040283529160200191620003bf565b820191906000526020600020905b815481529060010190602001808311620003a157829003601f168201915b505050505081565b6003546040516396210c5160e01b81523360048201819052916001600160a01b03169081906396210c519060240160206040518083038186803b1580156200040e57600080fd5b505afa15801562000423573d6000803e3d6000fd5b505050506040513d601f19601f8201168201806040525081019062000449919062000ceb565b15156001146200045857600080fd5b60055462000467848662000de8565b14620004cb5760405162461bcd60e51b815260206004820152602860248201527f53756d206f6620616d6f756e7420616e6420746f6b656e7320646f6573206e6f60448201526703a1036b0ba31b4160c51b60648201526084015b60405180910390fd5b8334148015620004db5750600084115b620004e557600080fd5b83156200052c57600080546040516001600160a01b0390911691829187156108fc0291889190818181858888f1935050505015801562000529573d6000803e3d6000fd5b50505b8215620005c757600480546040516323b872dd60e01b81526001600160a01b0385811693820193909352306024820152604481018690529116906323b872dd90606401602060405180830381600087803b1580156200058a57600080fd5b505af11580156200059f573d6000803e3d6000fd5b505050506040513d601f19601f82011682018060405250810190620005c5919062000ceb565b505b620005d28262000a78565b604080513081526001600160a01b0384166020820152908101859052606081018490527f7663c1b175df28255c6f251b98ef25d213712d232d2ef6891e6b32c3d085a39c9060800160405180910390a150505050565b600480546040516370a0823160e01b815233928101929092526000916001600160a01b03909116906370a082319060240160206040518083038186803b1580156200067257600080fd5b505afa15801562000687573d6000803e3d6000fd5b505050506040513d601f19601f82011682018060405250810190620006ad919062000d0f565b905090565b336001600160a01b0382161480620006d457506000546001600160a01b031633145b620007365760405162461bcd60e51b815260206004820152602b60248201527f596f752063616e6e6f74207265766f6b65207065726d697373696f6e20746f2060448201526a6f7468657220757365727360a81b6064820152608401620004c2565b604080518082018252600080825260208083018281526001600160a01b0386168084526001808452938690209451855460ff19169015151785559051939092019290925591519182527f3541f93cbae8c4be65491b824efe1570976e740b18c6aa441db5291f4de4c92191015b60405180910390a150565b6000546001600160a01b03163314620007fa5760405162461bcd60e51b815260206004820152600d60248201526c2737ba103a34329037bbb732b960991b6044820152606401620004c2565b600080546001600160a01b0319166001600160a01b0392909216919091179055565b600480546040516370a0823160e01b8152339281019290925260009182916001600160a01b0316906370a082319060240160206040518083038186803b1580156200086657600080fd5b505afa1580156200087b573d6000803e3d6000fd5b505050506040513d601f19601f82011682018060405250810190620008a1919062000d0f565b90506005548110620008b557600091505090565b80600554620008c5919062000e03565b91505090565b6003546000906001600160a01b03848116911614620008e957600080fd5b6003546040516396210c5160e01b815233600482015230916001600160a01b03169081906396210c519060240160206040518083038186803b1580156200092f57600080fd5b505afa15801562000944573d6000803e3d6000fd5b505050506040513d601f19601f820116820180604052508101906200096a919062000ceb565b6200097457600080fd5b6003546040516000916001600160a01b03169084908790620009969062000bcd565b620009a49392919062000d9c565b604051809103906000f080158015620009c1573d6000803e3d6000fd5b50600654604051635e48156960e11b81526001600160a01b03808416600483015292935091169063bc902ad290602401600060405180830381600087803b15801562000a0c57600080fd5b505af115801562000a21573d6000803e3d6000fd5b5050505062000a33816103e862000b5f565b6040516001600160a01b03821681527f546aacc7eb3d365d4e86f9a8293c482704359ea186ac804858c377040b7b42559060200160405180910390a195945050505050565b6000546001600160a01b038281169116141562000aed5760405162461bcd60e51b815260206004820152602c60248201527f546865206f776e65722063616e6e6f74206772616e74207065726d697373696f60448201526b37103a37903434b6b9b2b63360a11b6064820152608401620004c2565b60408051808201825260018082524260208084019182526001600160a01b03861660008181528483528690209451855460ff19169015151785559151939092019290925591519081527fceebffeea71a081da3958f44bb5272c02bc06e6a287e49bec90d854491c871349101620007a3565b60048054604051630f6798a560e01b81526001600160a01b038581169382019390935260248101849052911690630f6798a590604401600060405180830381600087803b15801562000bb057600080fd5b505af115801562000bc5573d6000803e3d6000fd5b505050505050565b6111a68062000e8783390190565b80356001600160a01b038116811462000bf357600080fd5b919050565b60006020828403121562000c0b57600080fd5b62000c168262000bdb565b9392505050565b6000806040838503121562000c3157600080fd5b62000c3c8362000bdb565b9150602083013567ffffffffffffffff8082111562000c5a57600080fd5b818501915085601f83011262000c6f57600080fd5b81358181111562000c845762000c8462000e70565b604051601f8201601f19908116603f0116810190838211818310171562000caf5762000caf62000e70565b8160405282815288602084870101111562000cc957600080fd5b8260208601602083013760006020848301015280955050505050509250929050565b60006020828403121562000cfe57600080fd5b8151801515811462000c1657600080fd5b60006020828403121562000d2257600080fd5b5051919050565b6000806040838503121562000d3d57600080fd5b50508035926020909101359150565b6000815180845260005b8181101562000d745760208185018101518683018201520162000d56565b8181111562000d87576000602083870101525b50601f01601f19169290920160200192915050565b6001600160a01b0384811682528316602082015260606040820181905260009062000dca9083018462000d4c565b95945050505050565b60208152600062000c16602083018462000d4c565b6000821982111562000dfe5762000dfe62000e5a565b500190565b60008282101562000e185762000e1862000e5a565b500390565b600181811c9082168062000e3257607f821691505b6020821081141562000e5457634e487b7160e01b600052602260045260246000fd5b50919050565b634e487b7160e01b600052601160045260246000fd5b634e487b7160e01b600052604160045260246000fdfe60806040523480156200001157600080fd5b50604051620011a6380380620011a683398101604081905262000034916200013f565b600080546001600160a01b038086166001600160a01b031992831617909255600180549285169290911691909117905580516200007990600290602084019062000099565b5050600380546001600160a01b03191633179055505042600555620002b5565b828054620000a79062000249565b90600052602060002090601f016020900481019282620000cb576000855562000116565b82601f10620000e657805160ff191683800117855562000116565b8280016001018555821562000116579182015b8281111562000116578251825591602001919060010190620000f9565b506200012492915062000128565b5090565b5b8082111562000124576000815560010162000129565b6000806000606084860312156200015557600080fd5b835162000162816200029c565b8093505060208085015162000177816200029c565b60408601519093506001600160401b03808211156200019557600080fd5b818701915087601f830112620001aa57600080fd5b815181811115620001bf57620001bf62000286565b604051601f8201601f19908116603f01168101908382118183101715620001ea57620001ea62000286565b816040528281528a868487010111156200020357600080fd5b600093505b8284101562000227578484018601518185018701529285019262000208565b82841115620002395760008684830101525b8096505050505050509250925092565b600181811c908216806200025e57607f821691505b602082108114156200028057634e487b7160e01b600052602260045260246000fd5b50919050565b634e487b7160e01b600052604160045260246000fd5b6001600160a01b0381168114620002b257600080fd5b50565b610ee180620002c56000396000f3fe608060405234801561001057600080fd5b506004361061009e5760003560e01c8063c4bebf9f11610066578063c4bebf9f1461012a578063c7a66eb31461013d578063d7959cf914610150578063e336846f14610165578063f2a4a82e1461017857600080fd5b806316ada547146100a357806317599cc5146100bf578063346fa5ed146100e15780633a36dd861461010c5780634ee4f58c14610115575b600080fd5b6100ac60055481565b6040519081526020015b60405180910390f35b6100d26100cd366004610c8a565b61018b565b6040516100b693929190610dd5565b6000546100f4906001600160a01b031681565b6040516001600160a01b0390911681526020016100b6565b6100ac60045481565b610128610123366004610cbc565b61023f565b005b610128610138366004610b5b565b610734565b6003546100f4906001600160a01b031681565b6101586109a1565b6040516100b69190610d98565b6100ac610173366004610c5e565b610a2f565b6001546100f4906001600160a01b031681565b6006602052600090815260409020805481906101a690610e03565b80601f01602080910402602001604051908101604052809291908181526020018280546101d290610e03565b801561021f5780601f106101f45761010080835404028352916020019161021f565b820191906000526020600020905b81548152906001019060200180831161020257829003601f168201915b50505050600183015460029093015491926001600160a01b031691905083565b6000546001600160a01b0383811691161461025957600080fd5b60008381526006602090815260408083203380855260059091019092529091205460ff161561028757600080fd5b600154604051630f86205b60e31b81523360048201526001600160a01b0390911690637c3102d89060240160206040518083038186803b1580156102ca57600080fd5b505afa1580156102de573d6000803e3d6000fd5b505050506040513d601f19601f820116820180604052508101906103029190610c1f565b151560011461031057600080fd5b60018260ff16101580156103285750600a8260ff1611155b61036d5760405162461bcd60e51b815260206004820152601260248201527153636f7265206f7574206f66207363616c6560701b604482015260640160405180910390fd5b6003546001600160a01b038281169116141561041157806001600160a01b031663cb0210a06040518163ffffffff1660e01b8152600401600060405180830381600087803b1580156103be57600080fd5b505af11580156103d2573d6000803e3d6000fd5b505060408051308152602081018890527f4de5afdb49140b347eafa0ef9f3bf23d9a98cbea03936e16cdfcfc9825657df2935001905060405180910390a15b600084815260066020908152604082206003810180546001808201835582865284862060ff891692019190915560049092018054928301815580855292842090910180546001600160a01b0319166001600160a01b038616179055918690525490541461048057610480610e67565b600160009054906101000a90046001600160a01b03166001600160a01b03166355a373d66040518163ffffffff1660e01b815260040160206040518083038186803b1580156104ce57600080fd5b505afa1580156104e2573d6000803e3d6000fd5b505050506040513d601f19601f820116820180604052508101906105069190610c41565b60405163a9059cbb60e01b81526001600160a01b03838116600483015260016024830152919091169063a9059cbb90604401602060405180830381600087803b15801561055257600080fd5b505af1158015610566573d6000803e3d6000fd5b505050506040513d601f19601f8201168201806040525081019061058a9190610c1f565b5060068260ff1611156106b757600160009054906101000a90046001600160a01b03166001600160a01b03166355a373d66040518163ffffffff1660e01b815260040160206040518083038186803b1580156105e557600080fd5b505afa1580156105f9573d6000803e3d6000fd5b505050506040513d601f19601f8201168201806040525081019061061d9190610c41565b60008581526006602052604090819020600190810154915163a9059cbb60e01b81526001600160a01b039283166004820152602481019190915291169063a9059cbb90604401602060405180830381600087803b15801561067d57600080fd5b505af1158015610691573d6000803e3d6000fd5b505050506040513d601f19601f820116820180604052508101906106b59190610c1f565b505b60008481526006602090815260408083206001600160a01b0385168085526005909101835292819020805460ff19166001179055805187815260ff8616928101929092528101919091527f2e8455e529a2fe8748bdedc153ce3a4be1d07b493f18c3aeb1169be2603a3bf59060600160405180910390a150505050565b6000546001600160a01b0383811691161461074e57600080fd5b60035433906001600160a01b031681141561076857600080fd5b600154604051630f86205b60e31b81526001600160a01b03838116600483015290911690637c3102d89060240160206040518083038186803b1580156107ad57600080fd5b505afa1580156107c1573d6000803e3d6000fd5b505050506040513d601f19601f820116820180604052508101906107e59190610c1f565b15156001146107f357600080fd5b6004805490600061080383610e3e565b90915550506004546000908152600660209081526040909120835161082a92850190610ac2565b50600480546000908152600660209081526040808320600190810180546001600160a01b0319166001600160a01b0388811691909117909155855485529382902042600290910155548151632ad1b9eb60e11b815291519316936355a373d6938282019392909190829003018186803b1580156108a657600080fd5b505afa1580156108ba573d6000803e3d6000fd5b505050506040513d601f19601f820116820180604052508101906108de9190610c41565b60405163a9059cbb60e01b81526001600160a01b038381166004830152600a6024830152919091169063a9059cbb90604401602060405180830381600087803b15801561092a57600080fd5b505af115801561093e573d6000803e3d6000fd5b505050506040513d601f19601f820116820180604052508101906109629190610c1f565b507f3c4b2b3d400dd7f23ad5063b756a1e92dc8fac1a81212972d9dfba46abaabb008282604051610994929190610dab565b60405180910390a1505050565b600280546109ae90610e03565b80601f01602080910402602001604051908101604052809291908181526020018280546109da90610e03565b8015610a275780601f106109fc57610100808354040283529160200191610a27565b820191906000526020600020905b815481529060010190602001808311610a0a57829003601f168201915b505050505081565b6000818152600660205260408082209051630ac3f68360e11b81526001600160a01b03851691631587ed0691610a6b9160030190600401610d51565b60206040518083038186803b158015610a8357600080fd5b505afa158015610a97573d6000803e3d6000fd5b505050506040513d601f19601f82011682018060405250810190610abb9190610ca3565b9392505050565b828054610ace90610e03565b90600052602060002090601f016020900481019282610af05760008555610b36565b82601f10610b0957805160ff1916838001178555610b36565b82800160010185558215610b36579182015b82811115610b36578251825591602001919060010190610b1b565b50610b42929150610b46565b5090565b5b80821115610b425760008155600101610b47565b60008060408385031215610b6e57600080fd5b8235610b7981610e93565b9150602083013567ffffffffffffffff80821115610b9657600080fd5b818501915085601f830112610baa57600080fd5b813581811115610bbc57610bbc610e7d565b604051601f8201601f19908116603f01168101908382118183101715610be457610be4610e7d565b81604052828152886020848701011115610bfd57600080fd5b8260208601602083013760006020848301015280955050505050509250929050565b600060208284031215610c3157600080fd5b81518015158114610abb57600080fd5b600060208284031215610c5357600080fd5b8151610abb81610e93565b60008060408385031215610c7157600080fd5b8235610c7c81610e93565b946020939093013593505050565b600060208284031215610c9c57600080fd5b5035919050565b600060208284031215610cb557600080fd5b5051919050565b600080600060608486031215610cd157600080fd5b833592506020840135610ce381610e93565b9150604084013560ff81168114610cf957600080fd5b809150509250925092565b6000815180845260005b81811015610d2a57602081850181015186830182015201610d0e565b81811115610d3c576000602083870101525b50601f01601f19169290920160200192915050565b6020808252825482820181905260008481528281209092916040850190845b81811015610d8c57835483526001938401939285019201610d70565b50909695505050505050565b602081526000610abb6020830184610d04565b604081526000610dbe6040830185610d04565b905060018060a01b03831660208301529392505050565b606081526000610de86060830186610d04565b6001600160a01b039490941660208301525060400152919050565b600181811c90821680610e1757607f821691505b60208210811415610e3857634e487b7160e01b600052602260045260246000fd5b50919050565b6000600019821415610e6057634e487b7160e01b600052601160045260246000fd5b5060010190565b634e487b7160e01b600052600160045260246000fd5b634e487b7160e01b600052604160045260246000fd5b6001600160a01b0381168114610ea857600080fd5b5056fea264697066735822122048a8b888b0e7c585620e23f26893aff00be7d49ca8cf514e049f00ed5f4f064164736f6c63430008060033a2646970667358221220a96d88d7fdcacdafb570c5a9432a097f6586ca577738bbcb68800f0ad15f2e9c64736f6c63430008060033608060405234801561001057600080fd5b506040516106c03803806106c083398101604081905261002f91610054565b600280546001600160a01b0319166001600160a01b0392909216919091179055610084565b60006020828403121561006657600080fd5b81516001600160a01b038116811461007d57600080fd5b9392505050565b61062d806100936000396000f3fe608060405234801561001057600080fd5b50600436106100885760003560e01c80639777f31e1161005b5780639777f31e1461010e578063a6f9dae114610121578063a87d942c14610134578063bc902ad21461014557600080fd5b806329092d0e1461008d57806367e4ac2c146100a25780638da5cb5b146100c057806396210c51146100eb575b600080fd5b6100a061009b3660046104ff565b610158565b005b6100aa610197565b6040516100b79190610548565b60405180910390f35b6002546100d3906001600160a01b031681565b6040516001600160a01b0390911681526020016100b7565b6100fe6100f93660046104ff565b6101f9565b60405190151581526020016100b7565b6100d361011c36600461052f565b610258565b6100a061012f3660046104ff565b610296565b6001546040519081526020016100b7565b6100a06101533660046104ff565b6102e2565b6002546001600160a01b0316331461018b5760405162461bcd60e51b815260040161018290610595565b60405180910390fd5b61019481610315565b50565b606060018054806020026020016040519081016040528092919081815260200182805480156101ef57602002820191906000526020600020905b81546001600160a01b031681526001909101906020018083116101d1575b5050505050905090565b60015460009061020b57506000919050565b6001600160a01b038216600081815260208190526040902054600180549192918390811061023b5761023b6105e1565b6000918252602090912001546001600160a01b0316149392505050565b6000600154821061026857600080fd5b6001828154811061027b5761027b6105e1565b6000918252602090912001546001600160a01b031692915050565b6002546001600160a01b031633146102c05760405162461bcd60e51b815260040161018290610595565b600280546001600160a01b0319166001600160a01b0392909216919091179055565b6002546001600160a01b0316331461030c5760405162461bcd60e51b815260040161018290610595565b6101948161043a565b61031e816101f9565b61035f5760405162461bcd60e51b81526020600482015260126024820152711059191c995cdcc81b9bdd081cdd1bdc995960721b6044820152606401610182565b600180546001600160a01b038316600090815260208190526040812054919261038881856105bc565b81548110610398576103986105e1565b600091825260209091200154600180546001600160a01b0390921692508291849081106103c7576103c76105e1565b600091825260208083209190910180546001600160a01b0319166001600160a01b0394851617905591831681529081905260409020829055600161040b81856105bc565b8154811061041b5761041b6105e1565b600091825260209091200180546001600160a01b031916905550505050565b610443816101f9565b156104895760405162461bcd60e51b81526020600482015260166024820152751059191c995cdcc8185b1c9958591e481cdd1bdc995960521b6044820152606401610182565b60018054808201825560008290527fb10e2d527612073b26eecdfd717e6a320cf44b4afac2b0732d9fcbe2b7fa0cf60180546001600160a01b0319166001600160a01b0384161790558054906104df90826105bc565b6001600160a01b0390921660009081526020819052604090209190915550565b60006020828403121561051157600080fd5b81356001600160a01b038116811461052857600080fd5b9392505050565b60006020828403121561054157600080fd5b5035919050565b6020808252825182820181905260009190848201906040850190845b818110156105895783516001600160a01b031683529284019291840191600101610564565b50909695505050505050565b6020808252600d908201526c2737ba103a34329037bbb732b960991b604082015260600190565b6000828210156105dc57634e487b7160e01b600052601160045260246000fd5b500390565b634e487b7160e01b600052603260045260246000fdfea2646970667358221220610ab98d44ad4c229ebb4ef421980bc75ad037467ba2c6958db424ffe10b5bd264736f6c6343000806003360806040523480156200001157600080fd5b5060405162000a6b38038062000a6b833981016040819052620000349162000134565b81516200004990600190602085019062000071565b50600080546001600160a01b0319166001600160a01b03929092169190911790555062000278565b8280546200007f9062000225565b90600052602060002090601f016020900481019282620000a35760008555620000ee565b82601f10620000be57805160ff1916838001178555620000ee565b82800160010185558215620000ee579182015b82811115620000ee578251825591602001919060010190620000d1565b50620000fc92915062000100565b5090565b5b80821115620000fc576000815560010162000101565b80516001600160a01b03811681146200012f57600080fd5b919050565b600080604083850312156200014857600080fd5b82516001600160401b03808211156200016057600080fd5b818501915085601f8301126200017557600080fd5b8151818111156200018a576200018a62000262565b604051601f8201601f19908116603f01168101908382118183101715620001b557620001b562000262565b81604052828152602093508884848701011115620001d257600080fd5b600091505b82821015620001f65784820184015181830185015290830190620001d7565b82821115620002085760008484830101525b95506200021a91505085820162000117565b925050509250929050565b600181811c908216806200023a57607f821691505b602082108114156200025c57634e487b7160e01b600052602260045260246000fd5b50919050565b634e487b7160e01b600052604160045260246000fd5b6107e380620002886000396000f3fe608060405234801561001057600080fd5b50600436106100b45760003560e01c80633eaaf86b116100715780633eaaf86b1461015f5780636ebcf6071461016857806370a0823114610188578063a9059cbb146101b1578063dd336c12146101c4578063dd62ed3e146101ef57600080fd5b806306fdde03146100b9578063095ea7b3146100d75780630f6798a5146100fa57806318160ddd1461010f57806323b872dd14610121578063349dc32914610134575b600080fd5b6100c1610228565b6040516100ce91906106d8565b60405180910390f35b6100ea6100e53660046106ae565b6102b6565b60405190151581526020016100ce565b61010d6101083660046106ae565b610322565b005b6002545b6040519081526020016100ce565b6100ea61012f366004610672565b6103ab565b600054610147906001600160a01b031681565b6040516001600160a01b0390911681526020016100ce565b61011360025481565b61011361017636600461061d565b60036020526000908152604090205481565b61011361019636600461061d565b6001600160a01b031660009081526003602052604090205490565b6100ea6101bf3660046106ae565b610535565b6101136101d236600461063f565b600460209081526000928352604080842090915290825290205481565b6101136101fd36600461063f565b6001600160a01b03918216600090815260046020908152604080832093909416825291909152205490565b600180546102359061075c565b80601f01602080910402602001604051908101604052809291908181526020018280546102619061075c565b80156102ae5780601f10610283576101008083540402835291602001916102ae565b820191906000526020600020905b81548152906001019060200180831161029157829003601f168201915b505050505081565b3360008181526004602090815260408083206001600160a01b038716808552925280832085905551919290917f8c5be1e5ebec7d5bd14f71427d1e84f3dd0314c0f7b2291e5b200ac8c7c3b925906103119086815260200190565b60405180910390a350600192915050565b6000546001600160a01b0316331461033957600080fd5b6001600160a01b0382166000908152600360205260408120805483929061036190849061072d565b90915550506040518181526001600160a01b038316906000907fddf252ad1be2c89b69c2b068fc378daa952ba7f163c4a11628f55a4df523b3ef9060200160405180910390a35050565b6001600160a01b0383166000908152600360205260408120548211156103d057600080fd5b6001600160a01b038416600090815260046020908152604080832033845290915290205482111561040057600080fd5b336001600160a01b0385161461041557600080fd5b6001600160a01b0384166000908152600360205260408120805484929061043d908490610745565b91829055506001600160a01b03808716600090815260036020526040808220939093559086168152908120805485935090919061047b90849061072d565b91829055506001600160a01b0380861660009081526003602090815260408083209490945591881681526004825282812033825290915290812080548593509091906104c8908490610745565b91829055506001600160a01b03868116600081815260046020908152604080832033845282529182902094909455518681529187169350917fddf252ad1be2c89b69c2b068fc378daa952ba7f163c4a11628f55a4df523b3ef910160405180910390a35060019392505050565b3360009081526003602052604081205482111561055157600080fd5b3360009081526003602052604081208054849290610570908490610745565b918290555033600090815260036020526040808220929092556001600160a01b038616815290812080548593509091906105ab90849061072d565b91829055506001600160a01b038516600081815260036020908152604091829020939093555185815290925033917fddf252ad1be2c89b69c2b068fc378daa952ba7f163c4a11628f55a4df523b3ef9101610311565b80356001600160a01b038116811461061857600080fd5b919050565b60006020828403121561062f57600080fd5b61063882610601565b9392505050565b6000806040838503121561065257600080fd5b61065b83610601565b915061066960208401610601565b90509250929050565b60008060006060848603121561068757600080fd5b61069084610601565b925061069e60208501610601565b9150604084013590509250925092565b600080604083850312156106c157600080fd5b6106ca83610601565b946020939093013593505050565b600060208083528351808285015260005b81811015610705578581018301518582016040015282016106e9565b81811115610717576000604083870101525b50601f01601f1916929092016040019392505050565b6000821982111561074057610740610797565b500190565b60008282101561075757610757610797565b500390565b600181811c9082168061077057607f821691505b6020821081141561079157634e487b7160e01b600052602260045260246000fd5b50919050565b634e487b7160e01b600052601160045260246000fdfea2646970667358221220f14f7320b37da4a65c4f34b3b6ad2d4c6d0ce5c45c140d3f1dca887bb0beb10364736f6c63430008060033a264697066735822122057aee846267e727c85ab036d2163fff3d5fc9e358c56531b57099a5ed58865be64736f6c63430008060033608060405234801561001057600080fd5b506040516106c03803806106c083398101604081905261002f91610054565b600280546001600160a01b0319166001600160a01b0392909216919091179055610084565b60006020828403121561006657600080fd5b81516001600160a01b038116811461007d57600080fd5b9392505050565b61062d806100936000396000f3fe608060405234801561001057600080fd5b50600436106100885760003560e01c80639777f31e1161005b5780639777f31e1461010e578063a6f9dae114610121578063a87d942c14610134578063bc902ad21461014557600080fd5b806329092d0e1461008d57806367e4ac2c146100a25780638da5cb5b146100c057806396210c51146100eb575b600080fd5b6100a061009b3660046104ff565b610158565b005b6100aa610197565b6040516100b79190610548565b60405180910390f35b6002546100d3906001600160a01b031681565b6040516001600160a01b0390911681526020016100b7565b6100fe6100f93660046104ff565b6101f9565b60405190151581526020016100b7565b6100d361011c36600461052f565b610258565b6100a061012f3660046104ff565b610296565b6001546040519081526020016100b7565b6100a06101533660046104ff565b6102e2565b6002546001600160a01b0316331461018b5760405162461bcd60e51b815260040161018290610595565b60405180910390fd5b61019481610315565b50565b606060018054806020026020016040519081016040528092919081815260200182805480156101ef57602002820191906000526020600020905b81546001600160a01b031681526001909101906020018083116101d1575b5050505050905090565b60015460009061020b57506000919050565b6001600160a01b038216600081815260208190526040902054600180549192918390811061023b5761023b6105e1565b6000918252602090912001546001600160a01b0316149392505050565b6000600154821061026857600080fd5b6001828154811061027b5761027b6105e1565b6000918252602090912001546001600160a01b031692915050565b6002546001600160a01b031633146102c05760405162461bcd60e51b815260040161018290610595565b600280546001600160a01b0319166001600160a01b0392909216919091179055565b6002546001600160a01b0316331461030c5760405162461bcd60e51b815260040161018290610595565b6101948161043a565b61031e816101f9565b61035f5760405162461bcd60e51b81526020600482015260126024820152711059191c995cdcc81b9bdd081cdd1bdc995960721b6044820152606401610182565b600180546001600160a01b038316600090815260208190526040812054919261038881856105bc565b81548110610398576103986105e1565b600091825260209091200154600180546001600160a01b0390921692508291849081106103c7576103c76105e1565b600091825260208083209190910180546001600160a01b0319166001600160a01b0394851617905591831681529081905260409020829055600161040b81856105bc565b8154811061041b5761041b6105e1565b600091825260209091200180546001600160a01b031916905550505050565b610443816101f9565b156104895760405162461bcd60e51b81526020600482015260166024820152751059191c995cdcc8185b1c9958591e481cdd1bdc995960521b6044820152606401610182565b60018054808201825560008290527fb10e2d527612073b26eecdfd717e6a320cf44b4afac2b0732d9fcbe2b7fa0cf60180546001600160a01b0319166001600160a01b0384161790558054906104df90826105bc565b6001600160a01b0390921660009081526020819052604090209190915550565b60006020828403121561051157600080fd5b81356001600160a01b038116811461052857600080fd5b9392505050565b60006020828403121561054157600080fd5b5035919050565b6020808252825182820181905260009190848201906040850190845b818110156105895783516001600160a01b031683529284019291840191600101610564565b50909695505050505050565b6020808252600d908201526c2737ba103a34329037bbb732b960991b604082015260600190565b6000828210156105dc57634e487b7160e01b600052601160045260246000fd5b500390565b634e487b7160e01b600052603260045260246000fdfea2646970667358221220610ab98d44ad4c229ebb4ef421980bc75ad037467ba2c6958db424ffe10b5bd264736f6c63430008060033a26469706673582212202f0a152e800886ed245ee66da74c6c479c23d318f7de685a3c34dc15b0def33764736f6c63430008060033608060405234801561001057600080fd5b506040516106c03803806106c083398101604081905261002f91610054565b600280546001600160a01b0319166001600160a01b0392909216919091179055610084565b60006020828403121561006657600080fd5b81516001600160a01b038116811461007d57600080fd5b9392505050565b61062d806100936000396000f3fe608060405234801561001057600080fd5b50600436106100885760003560e01c80639777f31e1161005b5780639777f31e1461010e578063a6f9dae114610121578063a87d942c14610134578063bc902ad21461014557600080fd5b806329092d0e1461008d57806367e4ac2c146100a25780638da5cb5b146100c057806396210c51146100eb575b600080fd5b6100a061009b3660046104ff565b610158565b005b6100aa610197565b6040516100b79190610548565b60405180910390f35b6002546100d3906001600160a01b031681565b6040516001600160a01b0390911681526020016100b7565b6100fe6100f93660046104ff565b6101f9565b60405190151581526020016100b7565b6100d361011c36600461052f565b610258565b6100a061012f3660046104ff565b610296565b6001546040519081526020016100b7565b6100a06101533660046104ff565b6102e2565b6002546001600160a01b0316331461018b5760405162461bcd60e51b815260040161018290610595565b60405180910390fd5b61019481610315565b50565b606060018054806020026020016040519081016040528092919081815260200182805480156101ef57602002820191906000526020600020905b81546001600160a01b031681526001909101906020018083116101d1575b5050505050905090565b60015460009061020b57506000919050565b6001600160a01b038216600081815260208190526040902054600180549192918390811061023b5761023b6105e1565b6000918252602090912001546001600160a01b0316149392505050565b6000600154821061026857600080fd5b6001828154811061027b5761027b6105e1565b6000918252602090912001546001600160a01b031692915050565b6002546001600160a01b031633146102c05760405162461bcd60e51b815260040161018290610595565b600280546001600160a01b0319166001600160a01b0392909216919091179055565b6002546001600160a01b0316331461030c5760405162461bcd60e51b815260040161018290610595565b6101948161043a565b61031e816101f9565b61035f5760405162461bcd60e51b81526020600482015260126024820152711059191c995cdcc81b9bdd081cdd1bdc995960721b6044820152606401610182565b600180546001600160a01b038316600090815260208190526040812054919261038881856105bc565b81548110610398576103986105e1565b600091825260209091200154600180546001600160a01b0390921692508291849081106103c7576103c76105e1565b600091825260208083209190910180546001600160a01b0319166001600160a01b0394851617905591831681529081905260409020829055600161040b81856105bc565b8154811061041b5761041b6105e1565b600091825260209091200180546001600160a01b031916905550505050565b610443816101f9565b156104895760405162461bcd60e51b81526020600482015260166024820152751059191c995cdcc8185b1c9958591e481cdd1bdc995960521b6044820152606401610182565b60018054808201825560008290527fb10e2d527612073b26eecdfd717e6a320cf44b4afac2b0732d9fcbe2b7fa0cf60180546001600160a01b0319166001600160a01b0384161790558054906104df90826105bc565b6001600160a01b0390921660009081526020819052604090209190915550565b60006020828403121561051157600080fd5b81356001600160a01b038116811461052857600080fd5b9392505050565b60006020828403121561054157600080fd5b5035919050565b6020808252825182820181905260009190848201906040850190845b818110156105895783516001600160a01b031683529284019291840191600101610564565b50909695505050505050565b6020808252600d908201526c2737ba103a34329037bbb732b960991b604082015260600190565b6000828210156105dc57634e487b7160e01b600052601160045260246000fd5b500390565b634e487b7160e01b600052603260045260246000fdfea2646970667358221220610ab98d44ad4c229ebb4ef421980bc75ad037467ba2c6958db424ffe10b5bd264736f6c63430008060033",
  "immutableReferences": {},
  "source": "// SPDX-License-Identifier: SimPL-2.0\r\npragma solidity >=0.8.0;\r\n\r\nimport \"./Interfaces.sol\";\r\nimport \"./AssetStorage.sol\";\r\nimport \"./User.sol\";\r\nimport \"./FunctionRegistry.sol\";\r\n\r\ncontract MainSystem is Ownable {\r\n\r\n    // Data\r\n    FunctionRegistry            public  functionRegistry;\r\n    OwnableStoragePointer       private users;             // Structure to store users\r\n    mapping(address => User)    private userAddresses;     // Ensure that a single account can instantiate only a single User contract\r\n\r\n    // Events\r\n    event UserCreated(User _userContract);\r\n\r\n    constructor () Ownable(msg.sender) {\r\n        // functionRegistry = new FunctionRegistry(msg.sender); \r\n        users = new OwnableStoragePointer(address(this));       // Because (this) interacts with the storage\r\n    }\r\n\r\n    function createUser(string memory _name) external {\r\n\r\n        require(address(userAddresses[msg.sender]) == address(0x0), \"This address has already a User registered\");\r\n\r\n        User user = new User(_name, msg.sender);   \r\n        userAddresses[msg.sender] = user;\r\n        users.insert(address(user));\r\n\r\n        emit UserCreated(user);\r\n    }\r\n\r\n    // function deleteUser(User _user) external  {\r\n\r\n    //     require(userAddresses[msg.sender] == _user, \"You cannot remove other's user's contracts\");\r\n\r\n    //     delete userAddresses[msg.sender];\r\n    //     users.remove(address(_user));\r\n    // }\r\n\r\n    function getMyUserContract() external view returns(User) {\r\n\r\n        return userAddresses[msg.sender];\r\n    }\r\n\r\n    // function getUsers() external view returns(address[] memory) {\r\n\r\n    //     return users.getAssets();\r\n    // }\r\n\r\n    function isIn(User _user) external view returns(bool) {\r\n\r\n        return users.isIn(address(_user));\r\n    }\r\n\r\n    // function userCount() external view returns(uint) {\r\n\r\n    //     return users.getCount();\r\n    // }\r\n\r\n}",
  "sourcePath": "/home/lapulasman//custumServe/contracts/Main.sol",
  "compiler": {
    "name": "solc",
    "version": "0.8.6+commit.11564f7e.Emscripten.clang"
  },
  "schemaVersion": "3.3.4",
  "updatedAt": "2021-09-06T12:19:39.030Z",
  "devdoc": {
    "kind": "dev",
    "methods": {
      "changeOwner(address)": {
        "params": {
          "_to": "The new owner of this contract "
        }
      }
    },
    "version": 1
  },
  "userdoc": {
    "kind": "user",
    "methods": {
      "changeOwner(address)": {
        "notice": "This function provides the possibility to change the owner"
      }
    },
    "version": 1
  }
}