{
  "contractName": "Ownable",
  "abi": [
    {
      "inputs": [
        {
          "internalType": "address",
          "name": "_owner",
          "type": "address"
        }
      ],
      "stateMutability": "nonpayable",
      "type": "constructor"
    },
    {
      "inputs": [],
      "name": "owner",
      "outputs": [
        {
          "internalType": "address",
          "name": "",
          "type": "address"
        }
      ],
      "stateMutability": "view",
      "type": "function"
    },
    {
      "inputs": [
        {
          "internalType": "address",
          "name": "_to",
          "type": "address"
        }
      ],
      "name": "changeOwner",
      "outputs": [],
      "stateMutability": "nonpayable",
      "type": "function"
    }
  ],
  "bytecode": "0x608060405234801561001057600080fd5b506040516101e83803806101e883398101604081905261002f91610054565b600080546001600160a01b0319166001600160a01b0392909216919091179055610084565b60006020828403121561006657600080fd5b81516001600160a01b038116811461007d57600080fd5b9392505050565b610155806100936000396000f3fe608060405234801561001057600080fd5b50600436106100365760003560e01c80638da5cb5b1461003b578063a6f9dae11461006a575b600080fd5b60005461004e906001600160a01b031681565b6040516001600160a01b03909116815260200160405180910390f35b61007d6100783660046100ef565b61007f565b005b6000546001600160a01b031633146100cd5760405162461bcd60e51b815260206004820152600d60248201526c2737ba103a34329037bbb732b960991b604482015260640160405180910390fd5b600080546001600160a01b0319166001600160a01b0392909216919091179055565b60006020828403121561010157600080fd5b81356001600160a01b038116811461011857600080fd5b939250505056fea26469706673582212209348581228ac04a12245cf95b6ba704e30b3effd9f98f83fd9a2cfca6ab7a5cc64736f6c63430008060033",
  "immutableReferences": {},
  "source": "// SPDX-License-Identifier: SimPL-2.0\r\npragma solidity >=0.8.0;\r\n\r\n\r\n/// @author Andrea Lisi\r\n/// @title Ownable\r\n/// @notice This contract keeps the information of its owner, passed as parameter to the constructor. It provides a modifier to let only the owner to pass its guard\r\ncontract Ownable {\r\n\r\n    address public owner;\r\n\r\n    constructor (address _owner) {\r\n\r\n        owner = _owner;\r\n    }\r\n\r\n    modifier isOwner() {\r\n\r\n        require(msg.sender == owner, \"Not the owner\");\r\n        _;\r\n    }\r\n\r\n    /// @notice This function provides the possibility to change the owner\r\n    /// @param _to The new owner of this contract \r\n    function changeOwner(address _to) external isOwner {\r\n\r\n        owner = _to;\r\n    }\r\n}\r\n\r\n\r\n/// @title Permissioned\r\n/// @notice This contract defines a permission policy and provides the functions to grant/revoke permissions to certain users/contracts. A Permissioned contract should be a contract with the purpouse to be accessed only by authorized entities\r\ncontract Permissioned is Ownable {\r\n\r\n    // The policies defined for this contract\r\n    struct PermissionPolicy {\r\n        \r\n        bool granted;\r\n        uint periodStart;\r\n    }\r\n\r\n    // For each address we have a PermissionPolicy defined\r\n    mapping(address => PermissionPolicy) public permissionMap;\r\n    uint constant interval = 100000; // 100K blocks, if 14 sec per block, then more or less 16 days\r\n\r\n    // Events\r\n    event NewPermission(address _to);\r\n    event PermissionRevoked(address _to);\r\n\r\n    constructor (address _owner) Ownable(_owner) {}\r\n\r\n    /// @notice Grant the permission to access to this contract to a certain address (contract or EOA)\r\n    /// @param _to The address meant to have permission\r\n    /// @dev The owner of this contract cannot grant permission to itself \r\n    function grantPermission(address _to) internal virtual {\r\n\r\n        require(_to != owner, \"The owner cannot grant permission to himself\");\r\n\r\n        permissionMap[_to] = PermissionPolicy({granted: true, periodStart: block.timestamp});\r\n\r\n        emit NewPermission(_to);\r\n    }\r\n\r\n    /// @notice Revoke the permission to access to this contract to a certain address (contract or EOA)\r\n    /// @param _to The address to revoke permission\r\n    /// @dev Only the owner of this contract or the receiver itself can revoke the permission to the receiver\r\n    function revokePermission(address _to) public {\r\n\r\n        require(msg.sender == _to || msg.sender == owner, \"You cannot revoke permission to other users\");\r\n\r\n        permissionMap[_to] = PermissionPolicy({granted: false, periodStart: 0});\r\n\r\n        emit PermissionRevoked(_to);\r\n    }\r\n    \r\n    function checkForPermission(address _of) public view returns (bool) {\r\n\r\n        PermissionPolicy memory policy = permissionMap[_of];\r\n\r\n        return policy.granted;\r\n    }\r\n}",
  "sourcePath": "/home/lapulasman/桌面/custumServe/contracts/Interfaces.sol",
  "compiler": {
    "name": "solc",
    "version": "0.8.6+commit.11564f7e.Emscripten.clang"
  },
  "schemaVersion": "3.3.4",
  "updatedAt": "2021-08-31T08:06:16.471Z",
  "devdoc": {
    "author": "Andrea Lisi",
    "kind": "dev",
    "methods": {
      "changeOwner(address)": {
        "params": {
          "_to": "The new owner of this contract "
        }
      }
    },
    "title": "Ownable",
    "version": 1
  },
  "userdoc": {
    "kind": "user",
    "methods": {
      "changeOwner(address)": {
        "notice": "This function provides the possibility to change the owner"
      }
    },
    "notice": "This contract keeps the information of its owner, passed as parameter to the constructor. It provides a modifier to let only the owner to pass its guard",
    "version": 1
  }
}