{
  "contractName": "Question",
  "abi": [
    {
      "inputs": [
        {
          "internalType": "address",
          "name": "_ms",
          "type": "address"
        },
        {
          "internalType": "contract Item",
          "name": "_item",
          "type": "address"
        },
        {
          "internalType": "string",
          "name": "_ipfs",
          "type": "string"
        }
      ],
      "stateMutability": "nonpayable",
      "type": "constructor"
    },
    {
      "anonymous": false,
      "inputs": [
        {
          "indexed": false,
          "internalType": "address",
          "name": "_question",
          "type": "address"
        },
        {
          "indexed": false,
          "internalType": "uint256",
          "name": "_index",
          "type": "uint256"
        }
      ],
      "name": "AnswerConfirmed",
      "type": "event"
    },
    {
      "anonymous": false,
      "inputs": [
        {
          "indexed": false,
          "internalType": "uint256",
          "name": "answer_index",
          "type": "uint256"
        },
        {
          "indexed": false,
          "internalType": "uint8",
          "name": "_score",
          "type": "uint8"
        },
        {
          "indexed": false,
          "internalType": "contract User",
          "name": "_rater",
          "type": "address"
        }
      ],
      "name": "AnswerRated",
      "type": "event"
    },
    {
      "anonymous": false,
      "inputs": [
        {
          "indexed": false,
          "internalType": "string",
          "name": "_ipfs",
          "type": "string"
        },
        {
          "indexed": false,
          "internalType": "contract User",
          "name": "_answer",
          "type": "address"
        }
      ],
      "name": "NewAnswer",
      "type": "event"
    },
    {
      "inputs": [],
      "name": "MS",
      "outputs": [
        {
          "internalType": "address",
          "name": "",
          "type": "address"
        }
      ],
      "stateMutability": "view",
      "type": "function"
    },
    {
      "inputs": [],
      "name": "answerNumber",
      "outputs": [
        {
          "internalType": "uint256",
          "name": "",
          "type": "uint256"
        }
      ],
      "stateMutability": "view",
      "type": "function"
    },
    {
      "inputs": [
        {
          "internalType": "uint256",
          "name": "",
          "type": "uint256"
        }
      ],
      "name": "answers",
      "outputs": [
        {
          "internalType": "string",
          "name": "ipfs",
          "type": "string"
        },
        {
          "internalType": "contract User",
          "name": "answerer",
          "type": "address"
        },
        {
          "internalType": "uint256",
          "name": "time",
          "type": "uint256"
        }
      ],
      "stateMutability": "view",
      "type": "function"
    },
    {
      "inputs": [],
      "name": "asker",
      "outputs": [
        {
          "internalType": "contract User",
          "name": "",
          "type": "address"
        }
      ],
      "stateMutability": "view",
      "type": "function"
    },
    {
      "inputs": [],
      "name": "ipfs",
      "outputs": [
        {
          "internalType": "string",
          "name": "",
          "type": "string"
        }
      ],
      "stateMutability": "view",
      "type": "function"
    },
    {
      "inputs": [],
      "name": "item",
      "outputs": [
        {
          "internalType": "contract Item",
          "name": "",
          "type": "address"
        }
      ],
      "stateMutability": "view",
      "type": "function"
    },
    {
      "inputs": [],
      "name": "time",
      "outputs": [
        {
          "internalType": "uint256",
          "name": "",
          "type": "uint256"
        }
      ],
      "stateMutability": "view",
      "type": "function"
    },
    {
      "inputs": [
        {
          "internalType": "address",
          "name": "_ms",
          "type": "address"
        },
        {
          "internalType": "string",
          "name": "_ipfs",
          "type": "string"
        }
      ],
      "name": "addAnswer",
      "outputs": [],
      "stateMutability": "nonpayable",
      "type": "function"
    },
    {
      "inputs": [
        {
          "internalType": "uint256",
          "name": "_index",
          "type": "uint256"
        },
        {
          "internalType": "address",
          "name": "_ms",
          "type": "address"
        },
        {
          "internalType": "uint8",
          "name": "_score",
          "type": "uint8"
        }
      ],
      "name": "addRate",
      "outputs": [],
      "stateMutability": "nonpayable",
      "type": "function"
    },
    {
      "inputs": [
        {
          "internalType": "contract RatingFunction",
          "name": "_function",
          "type": "address"
        },
        {
          "internalType": "uint256",
          "name": "_index",
          "type": "uint256"
        }
      ],
      "name": "computeScore",
      "outputs": [
        {
          "internalType": "uint256",
          "name": "",
          "type": "uint256"
        }
      ],
      "stateMutability": "view",
      "type": "function"
    }
  ],
  "bytecode": "0x60806040523480156200001157600080fd5b50604051620011a6380380620011a683398101604081905262000034916200013f565b600080546001600160a01b038086166001600160a01b031992831617909255600180549285169290911691909117905580516200007990600290602084019062000099565b5050600380546001600160a01b03191633179055505042600555620002b5565b828054620000a79062000249565b90600052602060002090601f016020900481019282620000cb576000855562000116565b82601f10620000e657805160ff191683800117855562000116565b8280016001018555821562000116579182015b8281111562000116578251825591602001919060010190620000f9565b506200012492915062000128565b5090565b5b8082111562000124576000815560010162000129565b6000806000606084860312156200015557600080fd5b835162000162816200029c565b8093505060208085015162000177816200029c565b60408601519093506001600160401b03808211156200019557600080fd5b818701915087601f830112620001aa57600080fd5b815181811115620001bf57620001bf62000286565b604051601f8201601f19908116603f01168101908382118183101715620001ea57620001ea62000286565b816040528281528a868487010111156200020357600080fd5b600093505b8284101562000227578484018601518185018701529285019262000208565b82841115620002395760008684830101525b8096505050505050509250925092565b600181811c908216806200025e57607f821691505b602082108114156200028057634e487b7160e01b600052602260045260246000fd5b50919050565b634e487b7160e01b600052604160045260246000fd5b6001600160a01b0381168114620002b257600080fd5b50565b610ee180620002c56000396000f3fe608060405234801561001057600080fd5b506004361061009e5760003560e01c8063c4bebf9f11610066578063c4bebf9f1461012a578063c7a66eb31461013d578063d7959cf914610150578063e336846f14610165578063f2a4a82e1461017857600080fd5b806316ada547146100a357806317599cc5146100bf578063346fa5ed146100e15780633a36dd861461010c5780634ee4f58c14610115575b600080fd5b6100ac60055481565b6040519081526020015b60405180910390f35b6100d26100cd366004610c8a565b61018b565b6040516100b693929190610dd5565b6000546100f4906001600160a01b031681565b6040516001600160a01b0390911681526020016100b6565b6100ac60045481565b610128610123366004610cbc565b61023f565b005b610128610138366004610b5b565b610734565b6003546100f4906001600160a01b031681565b6101586109a1565b6040516100b69190610d98565b6100ac610173366004610c5e565b610a2f565b6001546100f4906001600160a01b031681565b6006602052600090815260409020805481906101a690610e03565b80601f01602080910402602001604051908101604052809291908181526020018280546101d290610e03565b801561021f5780601f106101f45761010080835404028352916020019161021f565b820191906000526020600020905b81548152906001019060200180831161020257829003601f168201915b50505050600183015460029093015491926001600160a01b031691905083565b6000546001600160a01b0383811691161461025957600080fd5b60008381526006602090815260408083203380855260059091019092529091205460ff161561028757600080fd5b600154604051630f86205b60e31b81523360048201526001600160a01b0390911690637c3102d89060240160206040518083038186803b1580156102ca57600080fd5b505afa1580156102de573d6000803e3d6000fd5b505050506040513d601f19601f820116820180604052508101906103029190610c1f565b151560011461031057600080fd5b60018260ff16101580156103285750600a8260ff1611155b61036d5760405162461bcd60e51b815260206004820152601260248201527153636f7265206f7574206f66207363616c6560701b604482015260640160405180910390fd5b6003546001600160a01b038281169116141561041157806001600160a01b031663cb0210a06040518163ffffffff1660e01b8152600401600060405180830381600087803b1580156103be57600080fd5b505af11580156103d2573d6000803e3d6000fd5b505060408051308152602081018890527f4de5afdb49140b347eafa0ef9f3bf23d9a98cbea03936e16cdfcfc9825657df2935001905060405180910390a15b600084815260066020908152604082206003810180546001808201835582865284862060ff891692019190915560049092018054928301815580855292842090910180546001600160a01b0319166001600160a01b038616179055918690525490541461048057610480610e67565b600160009054906101000a90046001600160a01b03166001600160a01b03166355a373d66040518163ffffffff1660e01b815260040160206040518083038186803b1580156104ce57600080fd5b505afa1580156104e2573d6000803e3d6000fd5b505050506040513d601f19601f820116820180604052508101906105069190610c41565b60405163a9059cbb60e01b81526001600160a01b03838116600483015260016024830152919091169063a9059cbb90604401602060405180830381600087803b15801561055257600080fd5b505af1158015610566573d6000803e3d6000fd5b505050506040513d601f19601f8201168201806040525081019061058a9190610c1f565b5060068260ff1611156106b757600160009054906101000a90046001600160a01b03166001600160a01b03166355a373d66040518163ffffffff1660e01b815260040160206040518083038186803b1580156105e557600080fd5b505afa1580156105f9573d6000803e3d6000fd5b505050506040513d601f19601f8201168201806040525081019061061d9190610c41565b60008581526006602052604090819020600190810154915163a9059cbb60e01b81526001600160a01b039283166004820152602481019190915291169063a9059cbb90604401602060405180830381600087803b15801561067d57600080fd5b505af1158015610691573d6000803e3d6000fd5b505050506040513d601f19601f820116820180604052508101906106b59190610c1f565b505b60008481526006602090815260408083206001600160a01b0385168085526005909101835292819020805460ff19166001179055805187815260ff8616928101929092528101919091527f2e8455e529a2fe8748bdedc153ce3a4be1d07b493f18c3aeb1169be2603a3bf59060600160405180910390a150505050565b6000546001600160a01b0383811691161461074e57600080fd5b60035433906001600160a01b031681141561076857600080fd5b600154604051630f86205b60e31b81526001600160a01b03838116600483015290911690637c3102d89060240160206040518083038186803b1580156107ad57600080fd5b505afa1580156107c1573d6000803e3d6000fd5b505050506040513d601f19601f820116820180604052508101906107e59190610c1f565b15156001146107f357600080fd5b6004805490600061080383610e3e565b90915550506004546000908152600660209081526040909120835161082a92850190610ac2565b50600480546000908152600660209081526040808320600190810180546001600160a01b0319166001600160a01b0388811691909117909155855485529382902042600290910155548151632ad1b9eb60e11b815291519316936355a373d6938282019392909190829003018186803b1580156108a657600080fd5b505afa1580156108ba573d6000803e3d6000fd5b505050506040513d601f19601f820116820180604052508101906108de9190610c41565b60405163a9059cbb60e01b81526001600160a01b038381166004830152600a6024830152919091169063a9059cbb90604401602060405180830381600087803b15801561092a57600080fd5b505af115801561093e573d6000803e3d6000fd5b505050506040513d601f19601f820116820180604052508101906109629190610c1f565b507f3c4b2b3d400dd7f23ad5063b756a1e92dc8fac1a81212972d9dfba46abaabb008282604051610994929190610dab565b60405180910390a1505050565b600280546109ae90610e03565b80601f01602080910402602001604051908101604052809291908181526020018280546109da90610e03565b8015610a275780601f106109fc57610100808354040283529160200191610a27565b820191906000526020600020905b815481529060010190602001808311610a0a57829003601f168201915b505050505081565b6000818152600660205260408082209051630ac3f68360e11b81526001600160a01b03851691631587ed0691610a6b9160030190600401610d51565b60206040518083038186803b158015610a8357600080fd5b505afa158015610a97573d6000803e3d6000fd5b505050506040513d601f19601f82011682018060405250810190610abb9190610ca3565b9392505050565b828054610ace90610e03565b90600052602060002090601f016020900481019282610af05760008555610b36565b82601f10610b0957805160ff1916838001178555610b36565b82800160010185558215610b36579182015b82811115610b36578251825591602001919060010190610b1b565b50610b42929150610b46565b5090565b5b80821115610b425760008155600101610b47565b60008060408385031215610b6e57600080fd5b8235610b7981610e93565b9150602083013567ffffffffffffffff80821115610b9657600080fd5b818501915085601f830112610baa57600080fd5b813581811115610bbc57610bbc610e7d565b604051601f8201601f19908116603f01168101908382118183101715610be457610be4610e7d565b81604052828152886020848701011115610bfd57600080fd5b8260208601602083013760006020848301015280955050505050509250929050565b600060208284031215610c3157600080fd5b81518015158114610abb57600080fd5b600060208284031215610c5357600080fd5b8151610abb81610e93565b60008060408385031215610c7157600080fd5b8235610c7c81610e93565b946020939093013593505050565b600060208284031215610c9c57600080fd5b5035919050565b600060208284031215610cb557600080fd5b5051919050565b600080600060608486031215610cd157600080fd5b833592506020840135610ce381610e93565b9150604084013560ff81168114610cf957600080fd5b809150509250925092565b6000815180845260005b81811015610d2a57602081850181015186830182015201610d0e565b81811115610d3c576000602083870101525b50601f01601f19169290920160200192915050565b6020808252825482820181905260008481528281209092916040850190845b81811015610d8c57835483526001938401939285019201610d70565b50909695505050505050565b602081526000610abb6020830184610d04565b604081526000610dbe6040830185610d04565b905060018060a01b03831660208301529392505050565b606081526000610de86060830186610d04565b6001600160a01b039490941660208301525060400152919050565b600181811c90821680610e1757607f821691505b60208210811415610e3857634e487b7160e01b600052602260045260246000fd5b50919050565b6000600019821415610e6057634e487b7160e01b600052601160045260246000fd5b5060010190565b634e487b7160e01b600052600160045260246000fd5b634e487b7160e01b600052604160045260246000fd5b6001600160a01b0381168114610ea857600080fd5b5056fea264697066735822122048a8b888b0e7c585620e23f26893aff00be7d49ca8cf514e049f00ed5f4f064164736f6c63430008060033",
  "immutableReferences": {},
  "source": "// SPDX-License-Identifier: SimPL-2.0\r\npragma solidity >=0.8.0;\r\n\r\nimport \"./User.sol\";\r\nimport \"./Item.sol\";\r\nimport \"./RatingFunction.sol\";\r\n\r\ncontract Question {\r\n    \r\n    //Data\r\n    address                 public  MS;\r\n    Item                    public  item;\r\n    string                  public  ipfs;\r\n    User                    public  asker;\r\n    uint256                 public  answerNumber;\r\n    uint256                 public  time;\r\n    // OwnableStoragePointer   private answers;\r\n\r\n    event NewAnswer(string _ipfs, User _answer);\r\n    event AnswerRated(uint256 answer_index, uint8 _score, User _rater);\r\n    event AnswerConfirmed(address _question, uint256 _index);\r\n\r\n    struct Answer {\r\n        string   ipfs;\r\n        User     answerer;\r\n        uint256  time;\r\n        //Score\r\n        uint[]  scoreArray;\r\n        User[]  raterArray; \r\n        // uint[]  public timeArray;\r\n        mapping(User => bool) haveRated;\r\n    }\r\n    \r\n    mapping(uint => Answer) public answers;\r\n    \r\n    constructor (address _ms, Item _item, string memory _ipfs) {\r\n        MS = _ms;\r\n        item = _item;\r\n        ipfs = _ipfs;\r\n        asker = User(msg.sender);\r\n        time = block.timestamp;\r\n        // answers = new OwnableStoragePointer(address(this));\r\n    }\r\n    \r\n    function addAnswer(address _ms, string memory _ipfs) external {\r\n        require(_ms == MS);\r\n        User _user = User(msg.sender);\r\n        require(_user != asker);\r\n        require(item.checkForPermission(address(_user)) == true);\r\n        answerNumber++;\r\n        answers[answerNumber].ipfs = _ipfs;\r\n        answers[answerNumber].answerer = _user;\r\n        answers[answerNumber].time = block.timestamp;\r\n        \r\n        item.tokenContract().transfer(address(_user), 10);\r\n        \r\n        emit NewAnswer(_ipfs, _user);\r\n    }\r\n    \r\n    function addRate(uint256 _index, address _ms, uint8 _score) external {\r\n        require(_ms == MS);\r\n        User _user = User(msg.sender);\r\n        require(answers[_index].haveRated[_user] == false);\r\n        require(item.checkForPermission(msg.sender) == true);\r\n     \r\n        require(_score >= 1 && _score <= 10, \"Score out of scale\");\r\n\r\n        if (_user == asker) {\r\n            _user.updateReputation();\r\n            emit AnswerConfirmed(address(this), _index);\r\n        }\r\n        answers[_index].scoreArray.push(_score);\r\n        answers[_index].raterArray.push(_user);\r\n\r\n        assert(answers[_index].scoreArray.length == answers[_index].raterArray.length);  \r\n        item.tokenContract().transfer(address(_user), 1);\r\n\r\n        if (_score > 6 ) {\r\n            item.tokenContract().transfer(address(answers[_index].answerer), 1);\r\n        }      \r\n\r\n        answers[_index].haveRated[_user] = true;\r\n\r\n        emit AnswerRated(_index, _score, _user);\r\n    }\r\n    \r\n    function computeScore(RatingFunction _function, uint256 _index) external view returns (uint) {\r\n        return _function.compute(answers[_index].scoreArray);\r\n    }\r\n    \r\n}",
  "sourcePath": "/home/lapulasman//custumServe/contracts/Question.sol",
  "compiler": {
    "name": "solc",
    "version": "0.8.6+commit.11564f7e.Emscripten.clang"
  },
  "schemaVersion": "3.3.4",
  "updatedAt": "2021-09-06T12:19:39.038Z",
  "devdoc": {
    "kind": "dev",
    "methods": {},
    "version": 1
  },
  "userdoc": {
    "kind": "user",
    "methods": {},
    "version": 1
  }
}