{
  "contractName": "StoragePointer",
  "abi": [
    {
      "inputs": [
        {
          "internalType": "address",
          "name": "_asset",
          "type": "address"
        }
      ],
      "name": "insert",
      "outputs": [],
      "stateMutability": "nonpayable",
      "type": "function"
    },
    {
      "inputs": [
        {
          "internalType": "address",
          "name": "_asset",
          "type": "address"
        }
      ],
      "name": "remove",
      "outputs": [],
      "stateMutability": "nonpayable",
      "type": "function"
    },
    {
      "inputs": [
        {
          "internalType": "address",
          "name": "_asset",
          "type": "address"
        }
      ],
      "name": "isIn",
      "outputs": [
        {
          "internalType": "bool",
          "name": "",
          "type": "bool"
        }
      ],
      "stateMutability": "view",
      "type": "function"
    },
    {
      "inputs": [],
      "name": "getCount",
      "outputs": [
        {
          "internalType": "uint256",
          "name": "",
          "type": "uint256"
        }
      ],
      "stateMutability": "view",
      "type": "function"
    },
    {
      "inputs": [],
      "name": "getAssets",
      "outputs": [
        {
          "internalType": "address[]",
          "name": "",
          "type": "address[]"
        }
      ],
      "stateMutability": "view",
      "type": "function"
    },
    {
      "inputs": [
        {
          "internalType": "uint256",
          "name": "index",
          "type": "uint256"
        }
      ],
      "name": "getKeyAt",
      "outputs": [
        {
          "internalType": "address",
          "name": "",
          "type": "address"
        }
      ],
      "stateMutability": "view",
      "type": "function"
    }
  ],
  "bytecode": "0x608060405234801561001057600080fd5b50610501806100206000396000f3fe608060405234801561001057600080fd5b50600436106100625760003560e01c806329092d0e1461006757806367e4ac2c1461007c57806396210c511461009a5780639777f31e146100bd578063a87d942c146100e8578063bc902ad2146100f9575b600080fd5b61007a6100753660046103fa565b61010c565b005b610084610236565b6040516100919190610443565b60405180910390f35b6100ad6100a83660046103fa565b610298565b6040519015158152602001610091565b6100d06100cb36600461042a565b6102f7565b6040516001600160a01b039091168152602001610091565b600154604051908152602001610091565b61007a6101073660046103fa565b610335565b61011581610298565b61015b5760405162461bcd60e51b81526020600482015260126024820152711059191c995cdcc81b9bdd081cdd1bdc995960721b60448201526064015b60405180910390fd5b600180546001600160a01b03831660009081526020819052604081205491926101848185610490565b81548110610194576101946104b5565b600091825260209091200154600180546001600160a01b0390921692508291849081106101c3576101c36104b5565b600091825260208083209190910180546001600160a01b0319166001600160a01b039485161790559183168152908190526040902082905560016102078185610490565b81548110610217576102176104b5565b600091825260209091200180546001600160a01b031916905550505050565b6060600180548060200260200160405190810160405280929190818152602001828054801561028e57602002820191906000526020600020905b81546001600160a01b03168152600190910190602001808311610270575b5050505050905090565b6001546000906102aa57506000919050565b6001600160a01b03821660008181526020819052604090205460018054919291839081106102da576102da6104b5565b6000918252602090912001546001600160a01b0316149392505050565b6000600154821061030757600080fd5b6001828154811061031a5761031a6104b5565b6000918252602090912001546001600160a01b031692915050565b61033e81610298565b156103845760405162461bcd60e51b81526020600482015260166024820152751059191c995cdcc8185b1c9958591e481cdd1bdc995960521b6044820152606401610152565b60018054808201825560008290527fb10e2d527612073b26eecdfd717e6a320cf44b4afac2b0732d9fcbe2b7fa0cf60180546001600160a01b0319166001600160a01b0384161790558054906103da9082610490565b6001600160a01b0390921660009081526020819052604090209190915550565b60006020828403121561040c57600080fd5b81356001600160a01b038116811461042357600080fd5b9392505050565b60006020828403121561043c57600080fd5b5035919050565b6020808252825182820181905260009190848201906040850190845b818110156104845783516001600160a01b03168352928401929184019160010161045f565b50909695505050505050565b6000828210156104b057634e487b7160e01b600052601160045260246000fd5b500390565b634e487b7160e01b600052603260045260246000fdfea2646970667358221220453e1a8298b1dacf0ecf6ffed96819865d36841d98d12ca4f4e45a770845207a64736f6c63430008060033",
  "immutableReferences": {},
  "source": "// SPDX-License-Identifier: SimPL-2.0\r\npragma solidity >=0.8.0;\r\n\r\nimport {Ownable} from \"./Interfaces.sol\"; //causa problemi con User is Ownable\r\n\r\n/// @author Andrea Lisi\r\n/// @title AssetStorage\r\n/// @notice This contract interface defines the methods needed by a storage data structure\r\ninterface AssetStorage {\r\n\r\n    function insert(address _asset) external;\r\n\r\n    function remove(address _asset) external;\r\n\r\n    function isIn(address _asset) external view returns(bool);    \r\n\r\n    function getCount() external view returns(uint);\r\n\r\n    function getAssets() external view returns(address[] memory);\r\n}\r\n\r\n/// @title StoragePointer\r\n/// @notice This contract manages a storage data structure that allows insertion/deletion without iterating the stored elements, iteration and random access, but removing the elements changes the ordering of the elements\r\n//\r\n// Create a CRUD pointer-based structure\r\n// source: https://medium.com/@robhitchens/solidity-crud-part-1-824ffa69509a\r\n// \r\n// Benefits:\r\n//     - possbility to iterate\r\n//     - insert/remove don't iterate over the data\r\n//     - remove operation scales array of addresses\r\n//\r\n// Flaws:\r\n//     - destroy original ordering of addresses after remove operation\r\ncontract StoragePointer is AssetStorage {\r\n\r\n    // Map contractAddress => array_pointer\r\n    mapping(address => uint) assetMap;\r\n    address[] assetIndex;\r\n\r\n\r\n    /// @notice Insert a new asset inside this storage structure\r\n    /// @param _asset The asset to insert\r\n    /// @dev The asset should not be already present\r\n    function insert(address _asset) override virtual public {\r\n\r\n        require(!isIn(_asset), \"Address already stored\");\r\n\r\n        assetIndex.push(_asset);\r\n        uint len = assetIndex.length;\r\n        assetMap[_asset] = len-1;\r\n    }\r\n\r\n\r\n    /// @notice Remove an asset from this storage structure\r\n    /// @param _asset The asset to remove\r\n    /// @dev The asset should be already present; Retrieve the position of the asset inside the array; move last element inside that position and shrink array; update pointer in map\r\n    //.\r\n    function remove(address _asset) override virtual public {\r\n\r\n        require(isIn(_asset), \"Address not stored\");\r\n        \r\n        uint len = assetIndex.length;\r\n        uint rowToDelete = assetMap[_asset];\r\n        address keyToMove = assetIndex[len - 1];\r\n        assetIndex[rowToDelete] = keyToMove;\r\n        assetMap[keyToMove] = rowToDelete;\r\n        delete (assetIndex[len - 1]);\r\n    }\r\n\r\n\r\n    /// @notice Check if an asset is already present\r\n    /// @param _asset The asset to check the presence\r\n    /// @return True if the asset is present; false otherwise\r\n    function isIn(address _asset) public override view returns (bool) {\r\n        \r\n        if (assetIndex.length == 0) \r\n            return false;\r\n\r\n        uint idx = assetMap[_asset];\r\n        return assetIndex[idx] == _asset;\r\n    }\r\n\r\n\r\n    /// @notice Get the number of assets present\r\n    /// @return The number of assets\r\n    function getCount() external override view returns(uint) {\r\n\r\n        return assetIndex.length;\r\n    }\r\n\r\n\r\n    /// @notice Get the array of assets present\r\n    /// @return The array of assets\r\n    function getAssets() external override view returns(address[] memory) {\r\n\r\n        return assetIndex;\r\n    }\r\n\r\n\r\n    /// @notice Get the asset at a given position\r\n    /// @param index The index of the asset\r\n    /// @return The asset\r\n    function getKeyAt(uint index) external view returns(address) {\r\n\r\n        require(index >= 0 && index < assetIndex.length);\r\n        return assetIndex[index];\r\n    }\r\n}\r\n\r\n\r\n\r\n/// @title OwnableStoragePointer\r\n/// @notice Extension of StoragePointer such that insert/remove operations are allowed only by the owner of the storage\r\ncontract OwnableStoragePointer is StoragePointer, Ownable {\r\n\r\n    constructor(address _owner) Ownable(_owner) {}\r\n\r\n\r\n    /// @notice Insert a new asset inside this storage structure\r\n    /// @param _asset The asset to insert\r\n    /// @dev The asset should not be already present; the caller should be the owner of the contract\r\n    function insert(address _asset) public override isOwner {\r\n\r\n        super.insert(_asset);\r\n    }\r\n    \r\n\r\n    /// @notice Remove an asset from this storage structure\r\n    /// @param _asset The asset to remove\r\n    /// @dev The asset should be already present; Retrieve the position of the asset inside the array; move last element inside that position and shrink array; update pointer in map; the caller should be the owner of the contract\r\n    function remove(address _asset) public override isOwner {\r\n\r\n        super.remove(_asset);\r\n    }\r\n}",
  "sourcePath": "/home/lapulasman//custumServe/contracts/AssetStorage.sol",
  "compiler": {
    "name": "solc",
    "version": "0.8.6+commit.11564f7e.Emscripten.clang"
  },
  "schemaVersion": "3.3.4",
  "updatedAt": "2021-08-31T08:06:16.464Z",
  "devdoc": {
    "kind": "dev",
    "methods": {
      "getAssets()": {
        "returns": {
          "_0": "The array of assets"
        }
      },
      "getCount()": {
        "returns": {
          "_0": "The number of assets"
        }
      },
      "getKeyAt(uint256)": {
        "params": {
          "index": "The index of the asset"
        },
        "returns": {
          "_0": "The asset"
        }
      },
      "insert(address)": {
        "details": "The asset should not be already present",
        "params": {
          "_asset": "The asset to insert"
        }
      },
      "isIn(address)": {
        "params": {
          "_asset": "The asset to check the presence"
        },
        "returns": {
          "_0": "True if the asset is present; false otherwise"
        }
      },
      "remove(address)": {
        "details": "The asset should be already present; Retrieve the position of the asset inside the array; move last element inside that position and shrink array; update pointer in map",
        "params": {
          "_asset": "The asset to remove"
        }
      }
    },
    "title": "StoragePointer",
    "version": 1
  },
  "userdoc": {
    "kind": "user",
    "methods": {
      "getAssets()": {
        "notice": "Get the array of assets present"
      },
      "getCount()": {
        "notice": "Get the number of assets present"
      },
      "getKeyAt(uint256)": {
        "notice": "Get the asset at a given position"
      },
      "insert(address)": {
        "notice": "Insert a new asset inside this storage structure"
      },
      "isIn(address)": {
        "notice": "Check if an asset is already present"
      },
      "remove(address)": {
        "notice": "Remove an asset from this storage structure"
      }
    },
    "notice": "This contract manages a storage data structure that allows insertion/deletion without iterating the stored elements, iteration and random access, but removing the elements changes the ordering of the elements",
    "version": 1
  }
}